:100000000C9497000C94D6200C94E61F0C94D620E8
:100010000C94D6200C94D6200C94D6200C94071D5A
:100020000C94D6200C94771C0C94A71C0C94D71C11
:100030000C94D6200C94D6200C94D6200C94D62068
:100040000C94D6200C94D6200C94D6200C94D62058
:100050000C94D6200C94D6200C94671D0C94D620BA
:100060000C94D6200C94D6200C94D6200C94D62038
:100070000C94D6200C943D180C94D6200C94821924
:100080000C94D6200C94D6200C94F51F0C94D620FA
:100090000C94D6200C94D6200C94D6200C94D62008
:1000A0000C94D6200C94D6200C94D6200C94D620F8
:1000B0000C94D6200C94D6200C94D6200C94D620E8
:1000C0000C94D6200C94D6200C94D6200C94D620D8
:1000D0000C94D6200C94D6200C94D6200C94D620C8
:1000E0000C94D6200C94D620FB01D20298031C0459
:1000F0001C041F05C405650636070408F1084009FD
:100100009401F4014000472B80472B474F0041E00A
:10011000474F47738047734782004204478247A88E
:100120008047A847B000421347B047B4800011246D
:100130001FBECFEFCDBFDFE7DEBFE4E0F1E041E07F
:1001400019C0B791A79137912791079107FD0EC06C
:1001500097918791EF01F92FE82F0BBF07900D9230
:10016000A217B307D9F7FE011BBE04C01D92A21748
:10017000B307E1F7ED32F40721F70E94F40C0C9479
:06018000C100F894FFCF5E
:100186004552524F523A2073656E736F7220696EF4
:10019600697420726573756C74203D2025640A00AD
:1001A6004552524F523A2073656E736F7220636FD9
:1001B6006E66696775726174696F6E2072657375B4
:1001C6006C74203D2025640A00626D69313630006A
:1001D60073656E736F72207479706520697320255C
:1001E600730A0073656E736F722073616D706C6550
:1001F60020726174652073657420617420256448DB
:100206007A0A00616363656C65726F6D6574657209
:1002160020656E61626C656420776974682072611E
:100226006E676520736574206174202B2F2D2564FD
:1002360047730A006779726F6D6574657220656E23
:1002460061626C656420776974682072616E6765A7
:10025600207365742061742025644450530A004558
:1002660052524F523A20476F7420612062616420D7
:1002760073656E736F72207374617475733A20259B
:10028600640A000A0A0A4F76657272756E210A0AB6
:0802960000256400202564002E
:0D029E000404011020408002010808020441
:1002AC002F923F924F925F926F927F928F929F927A
:1002BC00AF92BF92CF92DF92EF92FF920F931F9368
:1002CC00CF93DF93CDB7DEB7A197CDBFDEBF3B0198
:1002DC00DC011196EC9111974E2F50E04E305105E8
:1002EC00B8F080E0A196CDBFDEBFDF91CF911F911A
:1002FC000F91FF90EF90DF90CF90BF90AF909F90B9
:10030C008F907F906F905F904F903F902F900895BB
:10031C001C01FA01EC58FF4F0C94702030E8832E2E
:10032C0061147104810411F40C94850AA82DC30185
:10033C004E96A11DFC015A2F0E947920672B11F4B7
:10034C000C945E0A1982282D830141E050E0BE0115
:10035C006F5F7F4F81E50E9419148111C3CF40E874
:10036C00442EA42DC1010796A11DFC015A2F0E94F9
:10037C00B02061FBCC24C0F8D12CC601002496958A
:10038C0087950794969587950794982F802D982F8D
:10039C00907489818F7BC92EC82AC982282D83012C
:1003AC0041E050E0BE016F5F7F4F81E50E944F132B
:1003BC00811198CF482D9301842DB1010E94840F97
:1003CC00811190CF442D91012F5F3F4F4F4F082D3E
:1003DC007301842DB1010E94BA1684CF9B0140E8B1
:1003EC00BC0180E80E94840F7DCF4B01B0E8AB2E9E
:1003FC0081149104A10411F40C94020AF301828D6E
:10040C00938D892B11F40C941A0A848D958D892B5C
:10041C0009F49BC7868D978D892B11F40C943B0A9C
:10042C002114310411F40C94790A19822A2D8401B7
:10043C0041E050E0FE0131966F01BF0180E50E9462
:10044C00191481114FCFC10104969C0140E82D83F2
:10045C003E834F83ED81FE815F810E94B0208981B4
:10046C0060FF8EC761FB992790F98C7F62FB332765
:10047C0030F9388B198A28893989220F331F227059
:10048C00892B822B63FB662760F96A8B1B8A2A896E
:10049C003B89220F331F220F331F24708B7F822B3B
:1004AC008983D30113961C922A2D840141E050E0DC
:1004BC00B60180E50E944F13811114CFF0E84F2E46
:1004CC004A2D9401842DB1010E94840F81110ACF11
:1004DC0019822A2D840141E050E0B60182E60E9487
:1004EC0019148111FFCE898181FF02C00C944A0A34
:1004FC00442D91012F5F3F4F4F4F0A2D7401842DD6
:10050C00B1010E94D0158111EDCE19822A2D8401E2
:10051C0041E050E0B60189E50E9419148111E2CE48
:10052C00ED81FE815F810E94B02066FB992790F9D6
:10053C00898190FB87F989832A2D840141E050E061
:10054C00B60189E50E944F138111CCCE1C82198211
:10055C001A822A2D840141E050E0BE016C5F7F4F6E
:10056C008FE50E9419148111BDCE8C818C7F8C83F8
:10057C0089838D819E81AF810196A11DFC015A2F2B
:10058C000E94B0206A832A2D840142E050E0B6011B
:10059C008FE50E944F13A6CE4B0120E8A22E8114AA
:1005AC009104A10409F416C7F301828D938D892B54
:1005BC0009F42EC7848D958D892B09F4C3C6868DBD
:1005CC00978D892B09F45DC7AB2B09F480C7198271
:1005DC002A2D840141E050E0CE0101966C01BC0152
:1005EC0080E50E94191481117DCEC10104969C01F5
:1005FC0040E82D833E834F83ED81FE815F810E9415
:10060C00B020898165FFB6C68760898381E0D301FC
:10061C0013968C932A2D840141E050E0B60180E5BD
:10062C000E944F1381115ECEF0E84F2E4A2D94019B
:10063C00842DB1010E94840F811154CE442D91015F
:10064C002F5F3F4F4F4F0A2D7401842DB1010E9433
:10065C00D015811147CE19822A2D840141E050E03A
:10066C00B60189E50E94191481113CCEED81FE8101
:10067C005F810E94B02064FB992790F9898190FBDF
:10068C0087F989832A2D840141E050E0B60189E580
:10069C000E944F13811126CE8D819E81AF810196D0
:1006AC00A11DFC015A2F0E94B02069832A2D8401C0
:1006BC0041E050E0B60180E60E944F13811112CE4A
:1006CC002A2D840141E050E0B60182E60E94191403
:1006DC00811108CEED81FE815F810E94B020862FB2
:1006EC008370982F990F990F8981837C262F220F65
:1006FC00220F2073892B822B65FB662760F96E8B8A
:10070C001F8A2E893F89220F331F22708D7F822BE7
:10071C0089832A2D840141E050E0B60182E60E94D3
:10072C004F13E0CDA0E88A2E61147104810409F402
:10073C0060C6FB01828D938D892B09F484C6848D50
:10074C00958D892B09F4F8C5868D978D892B09F425
:10075C0089C62114310409F4C3C61982282D8301DA
:10076C0041E050E0FE0131966F01BF0182E50E942D
:10077C0019148111B7CDC10104969C0140E82D8359
:10078C003E834F83ED81FE815F810E94B02060FB30
:10079C00442440F8512CC201880F991F880F991FCF
:1007AC00880F991F982F98708981877F492E482A26
:1007BC004982282D830141E050E0B60182E50E9478
:1007CC004F1381118FCD30E8432E482D9301842D8A
:1007DC00B1010E94840F811185CD442D91012F5FB1
:1007EC003F4F4F4F082D7301842DB1010E94D0153E
:1007FC00811178CD19821A82ED81FE815F810E9470
:10080C00B020607C09F44FC6603409F475C66038BA
:10081C0009F47BC6603C09F47DC6282D830142E0B7
:10082C0050E0B6018AE70E944F135CCDB0E88B2EE6
:10083C0061147104810409F4E8C5FB01828D938D68
:10084C00892B09F4EEC5848D958D892B09F48FC500
:10085C00868D978D892B09F4FCC52114310409F47C
:10086C003CC61982282D830141E050E0FE013196EF
:10087C006F01BF0180E50E941914811133CDC101B4
:10088C0004969C0140E82B873C874D8730E8432E2B
:10089C00A42DC1010196A11D8D839E83AF83ED8193
:1008AC00FE815F810E94B020643009F46FC58B8596
:1008BC009C85AD850196A11D88879987AA87E885B7
:1008CC00F9855A850E94B02063FBEE24E0F8F12CE8
:1008DC00C70182959295907F9827807F9827982FB3
:1008EC00907189818F7EE92EE82AE982282D830177
:1008FC0041E050E0B60180E50E944F138111F2CC2B
:10090C00482D9301842DB1010E94840F8111EACCF2
:10091C00482D9301842DB1010E94840F8111E2CCEA
:10092C00082D73012D813E814F81842DB1010E94D0
:10093C00D0158111D7CC1982282D830141E050E0CC
:10094C00B60188E50E9419148111CCCCE885F98593
:10095C005A850E94B02062FB662760F9688F198E59
:10096C00888D998D880F991F880F991F880F991F53
:10097C00982F98708981877F892B8983282D8301F3
:10098C0041E050E0B60188E50E944F138111AACCDA
:10099C0019821A82282D830142E050E0B60183E6C9
:1009AC000E94191481119ECC8981ED81FE815F8199
:1009BC000E94B020EB85FC855D85633009F4D9C5B8
:1009CC000E94B020462F45FB992790F99A8F1B8ED9
:1009DC002A8D3B8D002436952795079436952795BF
:1009EC000794322F202D20748F7346FB442740F937
:1009FC004C8F1D8E4C8D5D8D5695542F44275795DD
:100A0C004795822B842B89838A81982F907EEB8546
:100A1C00FC855D850E94B020862F8F71892B8A837F
:100A2C00282D830142E050E0B60183E60E944F136B
:100A3C0059CC40E8842E61147104810409F4CDC4AE
:100A4C00FB01828D938D892B09F4E5C4848D958DE2
:100A5C00892B09F47DC4868D978D892B09F40BC5E0
:100A6C00AB2B09F42EC51982282D830141E050E0EF
:100A7C00CE0101966C01BC0180E50E941914811114
:100A8C0031CCC10104969C0140E82D833E834F83F9
:100A9C00A42FC9010296A11DFC015A2F0E94B0205F
:100AAC0060FBAA24A0F8B12CC5010024969587956B
:100ABC000794969587950794982F802D982F90746E
:100ACC0089818F7BA92EA82AA982282D830141E038
:100ADC0050E0B60180E50E944F13811103CC30E841
:100AEC00432E482D9301842DB1010E94840F811156
:100AFC00F9CB442D91012F5F3F4F4F4F082D7301C0
:100B0C00842DB1010E94D0158111ECCB19821A826F
:100B1C00282D830142E050E0B60185E60E941914AD
:100B2C008111E0CBED81FE815F810E94B020698351
:100B3C008D819E81AF810196A11DFC015A2F0E94CF
:100B4C00B02066FB442740F94E8F1F8E8E8D9F8DF3
:100B5C000024969587950794969587950794982FDA
:100B6C00802D80746F7B862B8A83282D830142E035
:100B7C0050E0B60185E60E944F13B4CB80E8882E76
:100B8C0061147104810409F42BC4FB01828D938DD3
:100B9C00892B09F44FC4848D958D892B09F4CFC30F
:100BAC00868D978D892B09F451C4AB2B09F492C413
:100BBC001982282D830141E050E0DE0111966D0170
:100BCC00BD0180E50E94191481118CCBC1010496E2
:100BDC009C0140E8288739874A872F5F3F4F4F4F4A
:100BEC002D833E834F83ED81FE815F810E94B02077
:100BFC0063FB662760F9898160FB87F98983282D5F
:100C0C00830141E050E0B60180E50E944F13811151
:100C1C0069CB30E8432E482D9301842DB1010E94FD
:100C2C00840F81115FCB442D91012F5F3F4F4F4FAC
:100C3C00082D7301842DB1010E94D015811152CB66
:100C4C0019821A82282D830142E050E0B60187E612
:100C5C000E941914811146CB8981982F907CE885CC
:100C6C00F9855A850E94B020862F8F73892B898332
:100C7C00ED81FE815F810E94B020962F862F880F18
:100C8C00880F880F80733A81387CE885F9855A85FE
:100C9C000E94B020262F22952695269523709170C0
:100CAC00990F990F922B832B892B8A83282D8301E3
:100CBC0042E050E0B60187E60E944F1313CB40E8A8
:100CCC00842E61147104810409F49CC3FB01828D90
:100CDC00938D892B09F4A2C3848D958D892B09F4EE
:100CEC003DC3868D978D892B09F4C2C3AB2B09F4B8
:100CFC00E5C31982282D830141E050E0CE01019615
:100D0C006C01BC0181E50E9419148111EBCAC1016F
:100D1C0004969C0140E82D833E834F838981ED81AD
:100D2C00FE815F810E94B020962F91708C7F61FBB9
:100D3C00332730F93B871C862B853C85220F331FCC
:100D4C002270892B822B62FB662760F96E871F86C7
:100D5C002E853F85220F331F220F331F24708B7F6C
:100D6C00822B8983282D830141E050E0B60181E577
:100D7C000E944F138111B6CA40E8442E482D9301AE
:100D8C00842DB1010E94840F8111ACCA442D9101B4
:100D9C002F5F3F4F4F4F082D7301842DB1010E94DF
:100DAC00D01581119FCA1982282D830141E050E092
:100DBC00B60188E50E941914811194CAED81FE8157
:100DCC005F810E94B02065FB992790F9898190FB87
:100DDC0087F98983282D830141E050E0B60188E52D
:100DEC000E944F1381117ECA19821A821B82282DF0
:100DFC00830141E050E0B6018CE50E941914811189
:100E0C0071CAED81FE815F810E94B020862F86958C
:100E1C00869586958370A0E48A9FC00111249981E0
:100E2C009F73892B89838D819E81AF810296A11D31
:100E3C00FC015A2F0E94B0206A838D819E81AF8164
:100E4C000196A11DFC015A2F0E94B0206B83282D06
:100E5C00830143E050E0B6018CE50E944F1342CA77
:100E6C0040E8842E61147104810409F4BFC2FB01B3
:100E7C00828D938D892B09F4E3C2848D958D892BFA
:100E8C0009F469C2868D978D892B09F4E8C2AB2BC6
:100E9C0009F42FC31982282D830141E050E0CE01C3
:100EAC0001966C01BC0181E50E94191481111ACACA
:100EBC00C10104969C0140E82B873C874D872E5F2F
:100ECC003F4F4F4F2D833E834F83ED81FE815F81DA
:100EDC000E94B02062956170688719868885998513
:100EEC00880F991F880F991F880F991F982F98703A
:100EFC008981877F892B8983282D830141E050E0EC
:100F0C00B60181E50E944F138111ECC930E8432EE4
:100F1C00482D9301842DB1010E94840F8111E2C9E7
:100F2C00442D91012F5F3F4F4F4F082D7301842D9E
:100F3C00B1010E94D0158111D5C91982282D8301C8
:100F4C0041E050E0B60188E50E9419148111CAC92C
:100F5C00ED81FE815F810E94B02063FB992790F99F
:100F6C00898190FB87F98983282D830141E050E02A
:100F7C00B60188E50E944F138111B4C919821A82F7
:100F8C001B82282D830141E050E0BE016D5F7F4F35
:100F9C008CE50E9419148111A5C98B81ED81FE810C
:100FAC005F810E94B020962F9370887F62FB66272A
:100FBC0060F968A319A228A139A1220F331F220FAF
:100FCC00331F2470892B822B8B838B859C85AD855D
:100FDC000196A11DFC015A2F0E94B0206A83EB855B
:100FEC00FC855D850E94B0206983282D830143E038
:100FFC0050E0B6018AE50E944F1374C920E8822E96
:10100C0061147104810409F4EEC1FB01828D938D8E
:10101C00892B09F412C2848D958D892B09F4A4C1F6
:10102C00868D978D892B09F429C2AB2B09F44CC200
:10103C001982282D830141E050E0CE0101966C010C
:10104C00BC0182E50E94191481114CC9C10104969E
:10105C009C0140E82D833E834F83ED81FE815F81AF
:10106C000E94B02060FF03C089818160898361FF89
:10107C0003C089818260898362FF03C08981846097
:10108C008983282D830141E050E0B60182E50E945E
:10109C004F13811127C930E8432E482D9301842D1D
:1010AC00B1010E94840F81111DC9442D91012F5F44
:1010BC003F4F4F4F082D7301842DB1010E94D01565
:1010CC00811110C91982282D830141E050E0B6012D
:1010DC0089E50E941914811105C92D803E804F802D
:1010EC004FEF241A340A440AF101542D0E94B02007
:1010FC0062FB992790F9898190FB87F98983282DC8
:10110C00830141E050E0B60189E50E944F13811143
:10111C00E9C81C8219821A82282D830141E050E013
:10112C00BE016C5F7F4F8FE50E9419148111DAC8E4
:10113C00ED81FE815F810E94B020862F8695869579
:10114C008695F101542D0E94B020962F91709295A6
:10115C00990F907E892BA4E08A9FC00111249C8159
:10116C009370892B8C83282D830141E050E0BE01C4
:10117C006C5F7F4F8FE50E944F138111B3C8282DF0
:10118C00830141E050E0BE016C5F7F4F82E60E941C
:10119C0019148111A7C88C81982F9E7FF101542DB1
:1011AC000E94B02061FB882780F9892B8C838A836D
:1011BC008D819E81AF810296A11DFC015A2F0E9448
:1011CC00B0206983282D830142E050E0B60181E60E
:1011DC000E944F1387C8B0E88B2EE0E84E2E6114A6
:1011EC007104810409F40BC1FB01828D938D892B51
:1011FC0009F41DC1848D958D892B09F4B2C0868D9F
:10120C00978D892B09F428C121143104410409F468
:10121C006DC11982282D830141E050E0BE016F5F42
:10122C007F4F81E50E94191481115CC8898180610E
:10123C008983282D830141E050E0BE016F5F7F4F11
:10124C0081E50E944F1381114DC8482D9301842DC7
:10125C00B1010E94840F811145C8442D91012F5F6B
:10126C003F4F4F4F082D7301842DB1010E94BA16C8
:10127C000C9478016B01F0E8EF2EC114D104E10459
:10128C0009F440C1AE2DC6014E96A11DFC015A2F8A
:10129C000E947920672B09F40EC119822E2D86012C
:1012AC0041E050E0BE016F5F7F4F81E50E94191451
:1012BC0081110C94780120E8422EA42DC1010796CF
:1012CC00A11DFC015A2F0E94B02060FB882480F8DD
:1012DC00912CC401880F991F82959295907F982725
:1012EC00807F9827982F907289818F7D892E882AEC
:1012FC0089822E2D860141E050E0BE016F5F7F4F49
:10130C0081E50E944F1381110C9478014E2D9601AA
:10131C00842DB1010E94840F81110C947801442D0D
:10132C0091012F5F3F4F4F4F0E2D7601842DB10150
:10133C000E94BA160C9478018FEF0C9478018FEF01
:10134C000C9478018FEF0C9478018FEF0C9478014A
:10135C008FEF0C9478018FEF0C9478018FEF0C9435
:10136C0078018FEF0C9478018FEF0C9478018FEF4C
:10137C000C947801887F89838FEFF30183834AC9AA
:10138C00887F89838FEFF30183838EC82B853C85FF
:10139C004D852F5F3F4F4F4F288739874A87E88508
:1013AC00F9855A850E94B02063FB662760F96C8B27
:1013BC001D8A8C899D89880F991F82959295907FA3
:1013CC009827807F9827982F907289818F7D892B01
:1013DC0089838CCA8FEF0C9478018FEF0C94780171
:1013EC008FEF0C9478018FEF0C9478018FEF0C94A5
:1013FC0078018FEF0C9478018FEF0C9478018FEFBC
:10140C000C9478018FEF0C9478018FEF0C94780189
:10141C008FEF0C9478018FEF0C9478018FEF0C9474
:10142C0078018FEF0C9478018FEF0C9478018FEF8B
:10143C000C9478018FEF0C9478018FEF0C94780159
:10144C008FEF0C9478018FEF0C9478018FEF0C9444
:10145C0078018FEF0C9478018FEF0C9478018FEF5B
:10146C000C9478018FEF0C9478018FEF0C94780129
:10147C008FEF0C9478018FEF0C9478018FEF0C9414
:10148C0078018FEF0C9478018D7F89832A2D84014C
:10149C0041E050E0B60182E60E944F1381110C949A
:1014AC0078010C947E0285E1898383E08A83B5C937
:1014BC008FEF0C9478018FEF0C9478018FEF0C94D4
:1014CC0078018FEF0C9478018FEF0C9478018FEFEB
:1014DC000C9478018FEF0C9478018FEF0C947801B9
:1014EC008FEF0C9478018FEF0C9478018FEF0C94A4
:1014FC0078018FEF0C9478018DE289838EC98FEF80
:10150C000C9478018FEF0C9478018DE1898387E03E
:10151C008A8383C9282D830142E050E0B6018AE713
:10152C000E941914811179C9ED81FE815F810E949D
:10153C00B020862F880F880F982F98718981807E14
:10154C00262F2695269526952770892B822B898305
:10155C008A81282F287F8D819E81AF810196A11DC4
:10156C00FC015A2F0E94B020862F8770822B8A8311
:10157C0054C90E94B020462F262F221F2227221F3B
:10158C00E885F9855A850E94B020962F9370990FA3
:08159C00922B887F892B17CAEE
:1015A4002F923F924F926F927F928F929F92AF921F
:1015B400BF92CF92DF92EF92FF920F931F93CF933C
:1015C400DF93CDB7DEB76297CDBFDEBF6C013A01C2
:1015D400862E7901FC0117821086848181FFEBC17C
:1015E4009E012F5F3F4F2C873D87C901A0E8888B60
:1015F400998BAA8B9FE3992EF301582D0E94B0205A
:10160400862F662309F4D3C1482D93012F5F3F4FE2
:101614004F4F653219F03901842E0BC0F901542F54
:101624000E94B020862F92E0690E711C811C6532E5
:1016340029F4B60190E00E945F1BDECFB12C00E0DC
:1016440010E01032A0F48B3269F030F4803259F09B
:10165400833269F410612CC08D3239F0803339F44F
:10166400116026C01260146023C0186021C017FDE9
:101674002AC090ED980F9A3078F416FF06C0AAE0BD
:10168400BA9E900D1124B92E13C0EAE00E9F900D5E
:101694001124092F10620CC08E3221F416FD87C16B
:1016A400106406C08C3611F4106802C0883659F4F0
:1016B400F301582D0E94B020862FFFEF6F1A7F0A86
:1016C4008F0A6111BECF982F9F7D9554933028F4D3
:1016D40024E0E20EF11C99820FC0833631F0833787
:1016E40091F0833509F064C027C0F70180818983B4
:1016F40097012E5F3F4F7901288839884A88AA24A8
:10170400A394B12C17C0A7014D5F5F4F4E875F872D
:10171400F70120803180428016FF03C04B2D50E03A
:1017240002C04FEF5FEF842DB1010E94E61E5C0101
:10173400EE84FF841F7718C097012D5F3F4F2E87DB
:101744003F87F70120803180428016FF03C04B2D74
:1017540050E002C04FEF5FEF842DB1010E94E61EFE
:101764005C011068EE84FF8413FD1EC0802F90E09E
:10177400A816B906C8F4B60180E290E00E945F1B87
:101784000150F4CFF101542D0E94B020862FFFEFB9
:101794002F1A3F0A4F0AB60190E00E945F1B011105
:1017A400015021E0A21AB108A114B10459F7F5C0FF
:1017B400843611F0893671F5F70117FF08C060818E
:1017C40071818281938197012C5F3F4F09C06081B1
:1017D4007181072E000C880B990B97012E5F3F4FE8
:1017E40079011F76312E97FF0AC0909580957095E8
:1017F40061957F4F8F4F9F4F312F3068332E2AE0F2
:1018040030E0AE014F5F5F4F0E942A17482E4C858F
:10181400441A4AC0853729F41F7EA12E2AE030E0FD
:1018240025C0512F597FA52E8F36C1F018F4883565
:1018340079F0BDC0803719F0883721F0B8C0852F02
:101844008061A82EA4FE0DC09A2D9460A92E09C013
:1018540014FF0AC0A52FA660AA2E06C028E030E017
:1018640005C020E130E002C020E132E0F701A7FE2C
:1018740008C06081718182819381A7014C5F5F4FB1
:1018840007C06081718180E090E0A7014E5F5F4FE7
:101894007A01AE014F5F5F4F0E942A17482E5C8584
:1018A400451A8A2D8F77382E36FE0DC0932D9E7FD4
:1018B400A92E4B1458F434FE0BC032FC09C0A32DDE
:1018C400AE7EAA2E05C0142DA32C03C0142D01C076
:1018D4001B2DA4FE0EC0FE01E40DF11D808180339A
:1018E40021F4EA2DE97EAE2E08C0A2FE05C01E5FDB
:1018F40004C08A2D867809F01F5FA3FC11C0A0FEE6
:1019040006C0101788F4040DB02EB11A0EC01017BB
:1019140060F4B60180E290E00E945F1B1F5FF7CF86
:10192400101718F4011B02C0B42C00E0A4FE10C070
:10193400B60180E390E00E945F1BA2FE17C0A1FCE9
:1019440003C088E790E002C088E590E0B6010CC0CF
:101954008A2D867859F0A1FE02C08BE201C080E294
:10196400A7FC8DE2B60190E00E945F1B4B1438F493
:10197400B60180E390E00E945F1BBA94F7CF4A94CB
:10198400E1E0F0E0EC0FFD1FE40DF11D8081B601F4
:1019940090E00E945F1B4110F2CF002309F42CCE8B
:1019A400B60180E290E00E945F1B0150F6CFF60181
:1019B4008781908502C08FEF9FEF6296CDBFDEBF17
:1019C400DF91CF911F910F91FF90EF90DF90CF9017
:1019D400BF90AF909F908F907F906F904F903F906B
:0419E4002F900895A3
:1019E800CF93DF931F92CDB7DEB70E94431E8FE5DA
:1019F8009AE10E94CD208AE090E00E94BD202CE070
:101A080030E040E866E070E482E897E40E94AA1EAD
:101A1800882341F01092B0471092B14780E4809338
:101A28004504FFCF21E030E040E866E876E48AE844
:101A380097E40E94AA1E8111EDCF80912508806845
:101A48008093250886E097E40E94891E892BA1F0DF
:101A58008091294790912A479F938F9386E891E038
:101A6800A0E0AF939F938F930E94441F0F900F9015
:101A78000F900F900F90CECF86E097E40E94CD197B
:101A8800892B51F08091294790912A479F938F93F2
:101A980086EA91E0A0E0E5CF8FEC91E0A0E0AF937B
:101AA8009F938F9386ED91E0A0E0AF939F938F93E0
:101AB8000E94441F1F9284E68F9389EE91E0A0E074
:101AC800AF939F938F930E94441F1F9280E18F933F
:101AD80089E092E0A0E0AF939F938F930E94441F08
:101AE80087E08F9380ED8F938AE392E0A0E0AF9335
:101AF8009F938F930E94441F82E49CE10E94C3201D
:101B08001092B0471092B14780E4809345048093C7
:101B1800460484EF91E08093B0479093B147CDBFDE
:101B2800DEBF8AE9682E82E0782E80E0882E90E475
:101B3800F92E24EFA22EBB24B394809129479091CB
:101B48002A47892B89F58091B3478823B9F169E839
:101B580072E080E00E94161A1092B0471092B147C6
:101B6800F0924504F092460468E873E180E090E062
:101B78000E9436198FEE90E20E94C32082E897E413
:101B88000E94D2201092B34782E49CE10E94C320B5
:101B9800A092B047B092B147F0924504809129478E
:101BA80090912A47892B79F28091294790912A4769
:101BB8009F938F9385E692E0A0E053CF82E897E465
:101BC8000E94A920882309F4B8CFBE016F5F7F4F18
:101BD80082E897E40E94C51D8B018981882309F456
:101BE800ACCF180190E8492EF801592F0E947920AE
:101BF8007F936F9387E992E0A0E0AF939F938F93D1
:101C08000E94441FE42C610182E0C80ED11CE11C33
:101C18009CE0290E311C411C0F900F900F900F90E3
:101C28000F90F6015E2D0E9479207F936F938F921B
:101C38007F926F920E94441FA2E0CA0ED11CE11C41
:101C48000F900F900F900F900F90C214D304E404DC
:101C580041F78AE090E00E94BD20045F1F4F898110
:101C68008150898361E082E897E40E941F2089817E
:061C78008111B7CF62CF1D
:101C7E006F927F928F92EF92FF920F931F93CF935B
:101C8E00DF9300D0CDB7DEB7009709F42EC1FC016B
:101C9E00268D378D232B09F428C17C0119821A82D7
:101CAE003C01F0E88F2E282D830142E050E0BE016A
:101CBE006F5F7F4F80E40E94191481110AC1A82D15
:101CCE00C3010596A11DFC015A2F0E94B020862F3C
:101CDE00603108F0FDC0482D9301275F3F4F4F4FF5
:101CEE00F901542F0E94B020861729F09981907F18
:101CFE008F70892B8983A82DC3010796A11DFC0126
:101D0E005A2F0E94B020862F633008F0E1C0482D74
:101D1E009301255F3F4F4F4FF901542F0E94B02082
:101D2E00861719F089818F788983A82DC3010696AD
:101D3E00A11DFC015A2F0E94B020862F6D3008F095
:101D4E00C7C0482D9301265F3F4F4F4FF901542FC7
:101D5E000E94B020861729F09A81907F8F70892B70
:101D6E008A83282D830141E050E0BE016F5F7F4FD3
:101D7E0080E40E944F138111ACC0F70185818187E9
:101D8E0087818387282D830141E050E0BE016E5F7D
:101D9E007F4F81E40E944F1381119BC0F701868112
:101DAE00828719821A82282D830142E050E0BE01FB
:101DBE006F5F7F4F82E40E94191481118AC0A82D93
:101DCE00C3010D96A11DFC015A2F0E94B020862F33
:101DDE006E3008F07DC0482D93012F5E3F4F4F4F60
:101DEE00F901542F0E94B020861729F09981907F17
:101DFE008F70892B8983A82DC3010F96A11DFC011D
:101E0E005A2F0E94B020633008F062C0F0E16F9F3D
:101E1E00B0011124607389818F7C682B6983A82D92
:101E2E00C3010E96A11DFC015A2F0E94B020862FD1
:101E3E00653008F04DC0482D93012E5E3F4F4F4F39
:101E4E00F901542F0E94B020861729F09A81987FAD
:101E5E008770892B8A83282D830141E050E0BE01D3
:101E6E006F5F7F4F82E40E944F13811132C0F701E2
:101E7E008585818B8785838B282D830141E050E0FA
:101E8E00BE016E5F7F4F83E40E944F13811121C00C
:101E9E00F7018685828BC7010E949811811119C0A6
:101EAE001982282D830141E050E0BE016F5F7F4F04
:101EBE0082E00E941914998196959F709130D9F005
:101ECE009230B9F0933099F0973019F487EF01C042
:101EDE008CEF0F900F90DF91CF911F910F91FF908C
:101EEE00EF908F907F906F9008958FEFF2CF88EFE5
:0A1EFE00F0CF89EFEECF8AEFECCFB2
:101F08002F923F924F926F927F928F92AF92BF9291
:101F1800CF92DF92EF920F931F93CF93DF93CDB7BA
:101F2800DEB72F97CDBFDEBF3B01882E1901442EA7
:101F380019828901242F41E050E0BE016F5F7F4F75
:101F480083E50E9419148111A3C0F301582D0E9442
:101F5800B020E82C630122E0C20ED11CE11CF6017E
:101F68005E2D613009F4A7C00E94B020898160FB12
:101F780087F961FB992790F99A831B822A813B8113
:101F88000024369527950794369527950794322F80
:101F9800202D20748F7962FB992790F99C831D82EC
:101FA8004C815D81440F551F42955295507F5427AF
:101FB800407F5427942F9072822B892B63FBAA248D
:101FC800A0F8B12C950122953295307F3227207FD9
:101FD8003227922F90718F7EA92EA82AA982242DAC
:101FE800810141E050E0BE016F5F7F4F83E50E94B1
:101FF8004F1381114DC01982242D810141E050E019
:10200800BE016F5F7F4F84E50E941914811140C0A3
:10201800F301582D0E94B020F6015E2D613009F4BD
:102028007CC00E94B020629561706E831F828E8191
:102038009F81880F991F82959295907F9827807F1E
:102048009827982F907289818F7D892BF6015E2DB4
:102058000E94B020962F92959695977023E0620E75
:10206800711C811CF301582D0E94B0206170660F0D
:10207800660F660F962B807F892B8983242D81011B
:1020880041E050E0BE016F5F7F4F84E50E944F132F
:102098002F96CDBFDEBFDF91CF911F910F91EF90AB
:1020A800DF90CF90BF90AF908F907F906F904F90C0
:1020B8003F902F9008950E94B020862F81708887C6
:1020C800198688859985880F991F880F991F880F09
:1020D800991F982F98708981837F61FB222720F9A7
:1020E8002A871B862A853B85220F331F220F331F21
:1020F8002470892B822B62FB992790F99C871D8677
:102108002C853D85220F331F22708C7F63FB662749
:1021180060F9822B862B898362CF0E94B02062955A
:1021280061706E871F868E859F8582959295907FB8
:102138009827807F9827982F907189818F7E892B87
:0221480085CF41
:10214A00BF92CF92DF92EF92FF920F931F93CF939A
:10215A00DF93CDB7DEB72F97CDBFDEBF982F937031
:10216A0082FD5EC0B12C01151105210509F4D7C005
:10217A007A016B01923009F456C0933089F091309C
:10218A0009F477C08BEF2F96CDBFDEBFDF91CF91D9
:10219A001F910F91FF90EF90DF90CF90BF9008951D
:1021AA00452B09F4BCC0672B09F4B9C0BE016F5FA7
:1021BA007F4F8FE0FB0111928A95E9F74B2D50E092
:1021CA00445F5F4F8CE00E9419148111AAC02981D3
:1021DA003A81F701208331832B813C812283338327
:1021EA002D813E81248335832F813885F601208312
:1021FA00318329853A85228333832B853C85248341
:10220A003583F3E0BF1609F46CC0F6011682178213
:10221A0010861186F7011682178210861186B3CFAF
:10222A00B3E0BB2EA0CF452B09F479C0BE016F5F86
:10223A007F4F8FE0FB0111928A95E9F7B11023C015
:10224A0046E050E08CE00E94191481116AC029818D
:10225A003A81F701208331832B813C8122833383A6
:10226A002D813E812483358316821782108611863A
:10227A008ACF6115710509F452C0422F98018B2D3E
:10228A000E94881780CF4B2D50E0445F5F4F8CE04F
:10229A000E941914811145C029813A81F7012083CE
:1022AA0031832B813C81228333832D813E81248398
:1022BA0035834F8550E060E070E0BA015527442726
:1022CA009D85492B0E8510E0102F002720E030E075
:1022DA00402B512B622B732B468357836087718760
:1022EA0052CF4F8550E060E070E0BA01552744278D
:1022FA009D85492B0E8510E0102F002720E030E045
:10230A00402B512B622B732BF60146835783608730
:10231A007187F701468357836087718734CF8FEFC0
:06232A0032CF8EEF30CF30
:102330006F927F928F92EF92FF920F931F93CF93A2
:10234000DF9300D0CDB7DEB7009709F4D4C0DC012D
:102350005E962D913C915F97232B09F4CCC01A8295
:1023600014962C91149730EF320F333008F073C06D
:102370007C01FC018085281709F443C03D01F0E889
:102380008F2E1982282D830141E050E0BE016E5F3F
:102390007F4F80E40E941914182F811125C0A82DA9
:1023A000C3010496A11DFC015A2F0E94B0208A810E
:1023B000623109F485C087FD50C0282D830141E0BA
:1023C00050E0B7016C5F7F4F8EE70E944F13182FCC
:1023D000D70118968C911897803109F45BC0F701EA
:1023E00084818087112369F0812F0F900F90DF91F6
:1023F000CF911F910F91FF90EF908F907F906F90F2
:102400000895D7011C968C919CEE980F923010F095
:10241000873109F5F70190898917D9F0C701A0E83C
:102420008C012A2F41E050E0B701645F7F4F8EE7B7
:102430000E944F13182FD70150968C9150978431DA
:1024400099F18731D1F0D7011C968C91F701808BDF
:10245000CBCF10E0C9CF1CEFC7CF8F778A83282D51
:10246000830141E050E0BE016E5F7F4F80E40E9437
:102470004F13182F1111B8CFA0CFF70184858531E4
:1024800029F7068CF78DE02D6AE070E080E090E09F
:102490000995D9CF5E96ED91FC915F9765E070E06C
:1024A00080E090E009959BCF5E96ED91FC915F975F
:1024B00061E570E080E090E00995F7018485C6CF82
:1024C00080688A83282D830141E050E0BE016E5F61
:1024D0007F4F80E40E944F13182F811185CF282D44
:1024E000830142E050E0BE016F5F7F4F88E50E94AC
:0A24F0004F13182FBFCF1FEF77CF57
:1024FA000F931F93CF93DF930E940B1C40E054E08D
:10250A0087EDFA01808320E234E0F901108280E449
:10251A0094E069E4FC016083C0E6D4E01882A0E894
:10252A00B4E01C9200EA14E0F801108261E0FA01BA
:10253A006483F9011482FC0164831C8214961C9240
:10254A001497F8011482FA01108A118A128A138ADE
:10255A00148A158A168A178AF901108A118A128A28
:10256A00138A148A158A168A178AFC01108A68E067
:10257A00618B128A138A148A158A168A7BE0778BF2
:10258A00188A198A1A8A1B8A1C8A74E07D8B72E05F
:10259A007E8B1F8A50961C92509751961C92519787
:1025AA0052961C92529753961C92539754961C9289
:1025BA00549755961C92559756961C92569757962D
:1025CA001C925797F801108A618B728B138A148AAE
:1025DA00658B668B178AFA0113861686158614860A
:1025EA00F9011386168615861486FC01138616864B
:1025FA00158614861B861E861D861C861B961C92B3
:10260A001B971E961C921E971D961C921D971C9630
:10261A001C92F8011386168615861486E0EEF5E0FC
:10262A00118611821082148216821782108675838F
:10263A0012821382128685EE90E28093A6479093C7
:10264A00A74786EE90E28093A4479093A54787EE2A
:10265A0090E28093A2479093A34788EE90E28093FA
:10266A00A0479093A14789EE90E280939E4790936A
:10267A009F478AEE90E280939C4790939D4784EE11
:10268A0090E280939A4790939B47DF91CF911F9155
:04269A000F910895FF
:10269E004F925F926F928F929F92AF92BF92CF9214
:1026AE00DF92EF920F931F93CF93DF93CDB7DEB7E9
:1026BE002597CDBFDEBF8D834B015A016801E22EF7
:1026CE0001151105210509F4ABC02801622E2CE17C
:1026DE00420E511C611CF201562D0E947920DB0125
:1026EE00109709F49DC0A114B10409F495C04E2DA4
:1026FE0096012E5F3F4F4F4FF901542F0E94B0208D
:10270E00613009F486C04E2D9601285F3F4F4F4F22
:10271E00F901542F0E94B020613109F45BC04E2D97
:10272E009601205F3F4F4F4FF901542F0E94B0206A
:10273E00653109F44FC03D813C8380E090E04E2D21
:10274E0096012F5F3F4F4F4F29833A834B833EE1D4
:10275E00C30ED11CE11C05C0F201562D0E9479203A
:10276E00DB018401080F191FE981FA815B810E9448
:10277E00B020862F21E030E0A8016C81FD01099583
:10278E00182FFC81FF5FFC83F6015E2D0E947920DD
:10279E00FB0161E070E080E090E009958C812D8175
:1027AE00821B90E08A159B05B8F2111137C0812F5C
:1027BE002596CDBFDEBFDF91CF911F910F91EF9088
:1027CE00DF90CF90BF90AF909F908F906F905F9063
:1027DE004F9008954E2D96012F5F3F4F4F4FF901A9
:1027EE00542F0E94B020862F9501A4016D81FD010A
:1027FE000995182FFEE1CF0ED11CE11CF6015E2DBE
:10280E000E947920FB0161E070E080E090E0099584
:10281E00CCCF8F778D8377CF14EFC9CF1EEFC7CF75
:04282E001FEFC5CF04
:102832003F924F925F926F927F928F929F92AF924E
:10284200BF92CF92DF92EF92FF920F931F93CF939B
:10285200DF93CDB7DEB7962E372E5A013801822E7E
:10286200CDB6DEB6422F98012E5D3F4F4F4FF90194
:10287200542F0E94B0209501260F311D4DB75EB72F
:10288200421B530B4DBF5EBFEDB7FEB731967F01C2
:1028920061147104810409F463C0682DA301465ECA
:1028A2005F4F6F4FFA01562F0E947920DB0110977C
:1028B20009F456C0A114B10409F450C0682DA30153
:1028C2004E5F5F4F6F4FFA01562F0E94B02061306A
:1028D20091F12301682CFFEF4F1A5F0A6F0AF20190
:1028E200562D0E94B020962FA701682F892FFD0137
:1028F2000995811131C0F701A92DB32DA7014A0D08
:102902005B1D81918D93E417F507D9F780E0CDBE69
:10291200DEBEDF91CF911F910F91FF90EF90DF907C
:10292200CF90BF90AF909F908F907F906F905F906D
:102932004F903F900895982F9068FFEF6F1A7F0A8B
:102942008F0AF301582D0E94B020862FA701692F0C
:10295200FD010995882379F28EEFD9CF84EFD7CF85
:042962008FEFD5CF4F
:102966006F927F928F92EF92FF920F931F93CF9366
:10297600DF931F92CDB7DEB73C0120E8822E6114AB
:102986007104810409F460C0FC01228D338D232B70
:1029960009F45AC0248D358D232B09F455C021E046
:1029A600468D578D452B09F046C07C012195FC01CB
:1029B6008281813009F44FC0F70112A2211149C06A
:1029C600F7011082282D830141E050E0B70180E035
:1029D6000E941914F7019081913D09F44DC0282DEC
:1029E600830141E050E0B70180E00E941914F7012D
:1029F6009081913D09F440C0282D830141E050E0CB
:102A0600B70180E00E941914811138C0F701808156
:102A1600813DA1F58FEFF7018383C7010E9447151A
:102A26000F90DF91CF911F910F91FF90EF908F90B4
:102A36007F906F90089520E07C012195FC018281B2
:102A4600813009F0B9CF07C0FC0122812130C1F0E5
:102A560012A28FEFE5CF82A32111FBCF282D830190
:102A660041E050E0BE016F5F7F4F8FE70E9419146F
:102A7600882309F4A5CFD4CF882361F28DEFD0CF78
:082A8600FC0122A38FEFCCCF6D
:102A8E006F927F928F92DF92EF92FF920F931F932E
:102A9E00CF93DF931F92CDB7DEB726EB2983009736
:102AAE0009F474C0DC015E962D913C915F97232B47
:102ABE0009F46CC07C013C01B0E88B2E282D8301FB
:102ACE0041E050E0BE016F5F7F4F8EE70E944F13D3
:102ADE00D82ED7015E96ED91FC915F9761E070E084
:102AEE0080E090E00995D11035C0F70182818130E8
:102AFE00F1F192E0D70117969C93179788E01596FF
:102B0E008C93159720E114962C93149723E0169628
:102B1E002C9316971F969C931F971D968C931D971B
:102B2E0084E11C968C931C971E961C921E971496ED
:102B3E008D919D910D90BC91A02DF701808791876D
:102B4E00A287B38784859585A685B785808B918B63
:102B5E00A28BB38B8D2D0F90DF91CF911F910F9183
:102B6E00FF90EF90DF908F907F906F900895282DBB
:102B7E00830141E050E0BE016F5F7F4F8FE70E94FF
:102B8E001914882309F4B5CFD82EE4CFDD24DA94B6
:022B9E00E1CF85
:102BA0005F926F927F928F929F92AF92BF92CF92DD
:102BB000DF92EF92FF920F931F93CF93DF9300D09A
:102BC0001F92CDB7DEB7B62EC72ED82E522E932E1B
:102BD000A42E3701802E19821A821B82202F870192
:102BE00043E050E0BE016F5F7F4F85E50E941914FE
:102BF000811135C0E52DF92D5A2D0E94B020862F68
:102C000090E0A0E082569D4FAF4FFC015A2F0E94EA
:102C1000B020262F862F8095998198236B8186235B
:102C2000EB2DFC2D5D2D0E94B020613059F058F045
:102C3000623051F1633031F5922B9983622F682B0A
:102C40006B8303C0922B99838B83282D830143E0F0
:102C500050E0BE016F5F7F4F85E50E944F132396C2
:102C6000CDBFDEBFDF91CF911F910F91FF90EF900D
:102C7000DF90CF90BF90AF909F908F907F906F909C
:102C80005F9008958CEFEBCF622F682B6B83998355
:022C9000DCCF97
:102C9200809172478E7F8093724780916E479091A8
:102CA2006F478130910509F1209104092B7F209310
:102CB2000409019780936E4790936F47E0916C47A8
:102CC200F0916D4780910809808380916C479091C3
:102CD2006D47019680936C4790936D4780910409EC
:102CE20082608093040984E00895809104098460DD
:102CF2008093040910926E4710926F47E0916C47DF
:102D0200F0916D4780910809808380916C47909182
:102D12006D47019680936C4790936D4780917247FF
:102D2200886080937247E0914F47F09150478091BD
:102D32005B4790915C4709958250823038F48091CC
:102D4200040984608093040988E00895809104094D
:102D5200846080930409809104098360809304094C
:102D6200809172478D7F809372471092714780E005
:022D72000895C2
:102D74005F926F927F928F929F92AF92BF92CF9207
:102D8400DF92EF92FF920F931F93CF93DF931F92E3
:102D9400CDB7DEB7B62EC72ED82E522E932EA42E24
:102DA4003701802E1982202F870141E050E0BE01B7
:102DB4006F5F7F4F86E50E941914811133C0E52DA2
:102DC400F92D5A2D0E94B020862F90E0A0E0825663
:102DD4009D4FAF4FFC015A2F0E94B020262F362F53
:102DE4003295307F862F809599819823832F809503
:102DF4008923EB2DFC2D5D2D0E94B020613029F13B
:102E040030F0623019F06330F1F4232B822B898384
:102E1400282D830141E050E0BE016F5F7F4F86E5BE
:102E24000E944F130F90DF91CF911F910F91FF904C
:102E3400EF90DF90CF90BF90AF909F908F907F9056
:102E44006F905F9008958CEFEDCF832B8983E0CF53
:102E5400FA01AA27283051F1203181F1E8946F93C7
:102E64006E7F6E5F7F4F8F4F9F4FAF4FB1E03ED06D
:102E7400B4E03CD0670F781F891F9A1FA11D680F0B
:102E8400791F8A1F911DA11D6A0F711D811D911D3E
:102E9400A11D20D009F468943F912AE0269F1124B3
:102EA4003019305D3193DEF6CF010895462F477017
:102EB400405D4193B3E00FD0C9F7F6CF462F4F7072
:102EC400405D4A3318F0495D31FD4052419302D0D0
:102ED400A9F7EACFB4E0A695979587957795679576
:102EE400BA95C9F700976105710508959B01AC0176
:102EF4000A2E06945795479537952795BA95C9F79D
:0C2F0400620F731F841F951FA01D08950D
:102F1000DF92EF92FF920F931F93CF93DF93CDB782
:102F2000DEB72997CDBFDEBFD82E7B018901242FC4
:102F3000BE016F5F7F4F89E0FB0111928A95E9F72F
:102F40004D2D50E04A5F5F4F82E10E9419148111BC
:102F500039C029813A81F701208331832B813C815B
:102F6000228333832D813E8124833583F3E0DF1672
:102F700081F0F70116821782108611862996CDBF3F
:102F8000DEBFDF91CF911F910F91FF90EF90DF9007
:102F90000895498550E060E070E0BA015527442764
:102FA0009F81492B088510E0102F002720E030E09A
:102FB000402B512B622B732BF7014683578360877D
:082FC0007187DCCF8EEFDACF40
:102FC8008091050984FD21C0809172478E7F80938E
:102FD8007247E0916C47F0916D47CF01019680935D
:102FE8006C4790936D4780818093080980916E4764
:102FF80090916F47019780936E4790936F47892B05
:1030080011F083E0089585E00895E0915547F09127
:10301800564780916147909162470995823071F0D7
:103028008330C9F4809172478160809372478091A0
:103038006B47880F8093070983E008958091724752
:1030480081608093724780916B47880F816080937D
:10305800070984E008958091040983608093040936
:10306800809172478D7F809372471092714780E0FC
:023078000895B9
:10307A001F920F920FB60F9211240BB60F922F9335
:10308A003F934F935F936F937F938F939F93AF93E6
:10309A00BF93EF93FF935B993DC05E992EC05F99F2
:1030AA0033C0589924C05A991CC0599B05C0E09155
:1030BA009A47F0919B4709958FEF8BB9FF91EF9152
:1030CA00BF91AF919F918F917F916F915F914F9136
:1030DA003F912F910F900BBE0F900FBE0F901F9034
:1030EA001895E0919C47F0919D470995DECFE091B4
:1030FA009E47F0919F470995D6CFE091A447F0915A
:10310A00A54709955F9BCDCFE091A047F091A147D4
:10311A000995C7CFE091A647F091A7470995BDCF7A
:10312A009091724792FD4DC080936B47987F8EE0D5
:10313A008093704724EF31E02093694730936A47C0
:10314A00946098609093724780EE90E280934F4724
:10315A009093504710925B4710925C478093514777
:10316A009093524710925D4710925E47809353475F
:10317A009093544710925F47109260478093554747
:10318A009093564710926147109262478EED90E2F3
:10319A008093574790935847109263471092644719
:1031AA0080910409886080930409809105098160EF
:1031BA008093050980910509806C8093050980E058
:0631CA00089581E0089564
:1031D0008091050984FF19C0E0915547F091564749
:1031E00080916147909162470995823081F18330E7
:1031F00001F58091724781608093724780916B479F
:10320000880F8093070983E0089580917247886052
:1032100080937247E0914F47F091504780915B4710
:1032200090915C470995833021F38430E9F0823036
:1032300071F0809104098360809304098091724742
:103240008D7F809372471092714780E0089580913E
:10325000724781608093724780916B47880F8160CD
:0C3260008093070984E008950C94E417A3
:10326C002F923F924F925F926F927F928F929F928A
:10327C00AF92BF92CF92DF92EF92FF920F931F9378
:10328C00CF93DF9300D000D0CDB7DEB72B013C013C
:10329C000E946D1F2C833B8349835A8312012301A7
:1032AC00612C712C43010E946D1FAC80BB80C980C6
:1032BC00DA80E12CF12C00E010E00E948220510118
:1032CC006201730184010E948B2068F32496CDBFA8
:1032DC00DEBFDF91CF911F910F91FF90EF90DF90A8
:1032EC00CF90BF90AF909F908F907F906F905F909A
:0832FC004F903F902F900895C0
:103304001F920F920FB60F9211240BB60F920F93C8
:103314001F932F933F934F935F936F937F938F9359
:103324009F93AF93BF93EF93FF93CF93DF931F923A
:10333400CDB7DEB7BE016F5F7F4F8AE897E40E9486
:10334400961D8C010E94B720882319F08981811170
:1033540018C00F90DF91CF91FF91EF91BF91AF9182
:103364009F918F917F916F915F914F913F912F9199
:103374001F910F910F900BBE0F900FBE0F901F90D7
:10338400189580912008F801808361E08AE897E429
:063394000E94921FDECF33
:10339A000F931F93CF93DF93CDB7DEB72897CDBF97
:1033AA00DEBFFC0123A134A1232B51F083A194A1F8
:1033BA002896CDBFDEBFDF91CF911F910F9108955F
:1033CA008C0198E095838CE0868382E0878321E1F3
:1033DA00248395871686878785E18487CF010E9493
:1033EA003F0E082E000C990BF80183A394A3892B96
:1033FA00E9F681E089838AE08A838DE08B838C8178
:10340A008E7F8C83B801CE0101960E945601082E48
:10341A00000C990BF80183A394A3892B39F6F801C0
:02342A00C5CF0C
:10342C00CF92DF92EF920F931F93CF93DF93E091A4
:10343C000240F0910340948191FF2EC06B01E82E65
:10344C00D0E0C0E000E010E4F6015E2D0E94B02058
:10345C00862F6623A1F0D80112966D917C9113975B
:10346C00DB011996ED91FC911A970995892B11F0B6
:10347C00DFEFCFEFBFEFCB1ADB0AEB0AE5CF6091A2
:10348C00024070910340DB011996ED91FC911A9763
:10349C008AE00995892B19F08FEF9FEF02C08D2FD1
:1034AC009C2FDF91CF911F910F91EF90DF90CF90D8
:0234BC00089571
:1034BE008091964790919747A0919847B0919947E0
:1034CE000196A11DB11D8093964790939747A093A7
:1034DE009847B09399478091B0479091B147892B07
:1034EE0011F18091924790919347A0919447B0919A
:1034FE0095470196A11DB11D8093924790939347D6
:10350E00A0939447B09395474091B0475091B147DF
:10351E0060E070E084179507A607B70709F00895D5
:10352E0080E4809347041092924710929347109232
:08353E0094471092954708958F
:103546008091050988608093050982E08093714720
:10355600E0915147F091524780915D4790915E47C7
:103566000995823009F1833061F480917247816058
:103576008093724780916B47880F8093070983E099
:103586000895809104098860809304098091050953
:10359600816080930509809172478D7F8093724781
:1035A600109271478EE008958091724781608093F2
:1035B600724780916B47880F81608093070984E08A
:0235C600089566
:1035C800EF92FF920F931F93CF93DF93CDB7DEB7A0
:1035D8006497CDBFDEBF7B018C0120E8AE014F5F51
:1035E8005F4FBE01655F7F4F83E00E94A510082EE4
:1035F800000C990B0097C9F42B853C85F7012083B3
:1036080031832D853E85228333832F853889248312
:10361800358329813A81268337832B813C81208712
:1036280031872D813E81228733876496CDBFDEBFE7
:0E363800DF91CF911F910F91FF90EF900895B9
:10364600809172478E7F8093724782E080937147A4
:10365600E0915347F091544780915F4790916047BE
:1036660009958230E1F0833061F480917247816080
:103676008093724780916B47880F8093070983E098
:1036860008958091040983608093040980917247AC
:103696008D7F809372471092714780E008958091E4
:1036A600724781608093724780916B47880F816073
:0836B6008093070984E00895E8
:1036BE000F931F93CF93DF93FB01248121FD03C052
:1036CE008FEF9FEF2CC022FF16C0478150852581BA
:1036DE0036814217530744F4A081B1819D012F5FBB
:1036EE003F4F208331838C93278130852F5F3F4F4F
:1036FE002783308714C08B01EC01FB010184F28516
:10370E00E02D0995892BE1F6D80117968D919C91A4
:10371E001897019617968D939C931897CE01DF916B
:08372E00CF911F910F91089546
:103736001F93CF93DF93CDB7DEB72597CDBFDEBFFF
:10374600182F6D834B835C8329833A83812F0E94D4
:1037560095188130D9F3BE016F5F7F4F87ED9FE1EA
:103766000E94181F60E070E082EE90E20E942E1F19
:1037760061E070E0CE0105960E94C61F80E00E94BF
:10378600C91E0E941E1E8130E1F3811107C02596D5
:10379600CDBFDEBFDF91CF911F9108958EEFF7CF9A
:1037A6000F931F93CF9389010F5F1F4F01381105A8
:1037B60068F5C82F60930646232B59F0DA01E7E037
:1037C600F6E498012A5F394B9D919193E217F3072E
:1037D600D9F78C2F0E9495188130D9F360E070E0FC
:1037E60082EE90E20E942E1FB80186E096E40E94C7
:1037F600C61F80E00E94C91E0E941E1E8130E1F392
:10380600811104C0CF911F910F9108958EEFFACFC9
:10381600E0E9F4E0808188608193E83984E0F80784
:10382600C9F7E0EBF4E0808188608193E83B84E0AF
:10383600F807C9F7E0E1F4E0808188608193E83118
:1038460084E0F807C9F7E0E3F4E0808188608193BB
:10385600E83384E0F807C9F7E0E5F4E080818860A2
:103866008193E83584E0F807C9F7E0E7F4E0808162
:0E38760088608193E83784E0F807C9F7089569
:10388400CF93DF931F92CDB7DEB7809129479091F4
:103894002A47892B21F48091B347882321F00F9084
:1038A400DF91CF910895BE016F5F7F4F82E897E467
:1038B4000E94961DBC019981911107C081E08093FB
:1038C400B3470F90DF91CF91089586E097E40E946B
:1038D400E41A8093294790932A47892B01F761E0E2
:0A38E40082E897E40E94921FDACFF9
:1038EE001F920F920FB60F9211240BB60F922F93B9
:1038FE003F934F935F936F937F938F939F93AF936A
:10390E00BF93EF93FF93E091AE47F091AF4730979F
:10391E0009F0099580E180930B0AFF91EF91BF9119
:10392E00AF919F918F917F916F915F914F913F9149
:10393E002F910F900BBE0F900FBE0F901F901895EA
:10394E001F920F920FB60F9211240BB60F922F9358
:10395E003F934F935F936F937F938F939F93AF9309
:10396E00BF93EF93FF93E091AC47F091AD47309743
:10397E0009F0099580E280930B0AFF91EF91BF91B8
:10398E00AF919F918F917F916F915F914F913F91E9
:10399E002F910F900BBE0F900FBE0F901F9018958A
:1039AE001F920F920FB60F9211240BB60F922F93F8
:1039BE003F934F935F936F937F938F939F93AF93A9
:1039CE00BF93EF93FF93E091AA47F091AB473097E7
:1039DE0009F0099580E480930B0AFF91EF91BF9156
:1039EE00AF919F918F917F916F915F914F913F9189
:1039FE002F910F900BBE0F900FBE0F901F9018952A
:103A0E001F920F920FB60F9211240BB60F922F9397
:103A1E003F934F935F936F937F938F939F93AF9348
:103A2E00BF93EF93FF93E091A847F091A94730978A
:103A3E0009F0099581E080930B0AFF91EF91BF91F8
:103A4E00AF919F918F917F916F915F914F913F9128
:103A5E002F910F900BBE0F900FBE0F901F901895C9
:103A6E0080910509806C809305098091724780FFD3
:103A7E0004C08091050984FD1BC08091050983FF58
:103A8E0003C080E1809370478091050982FF14C0C6
:103A9E0081E180937047E1E1F0E0EE0FFF1FE55DFD
:103AAE00F84B0190F081E02D0995809370470895B1
:103ABE008FE080937047E1CFE0917047F0E0EDCF5B
:103ACE001F920F920FB60F9211240BB60F922F93D7
:103ADE003F934F935F936F937F938F939F93AF9388
:103AEE00BF93EF93FF937E9B05C0E091A247F091A9
:103AFE00A34709958FEF8FB9FF91EF91BF91AF91CA
:103B0E009F918F917F916F915F914F913F912F91E7
:0E3B1E000F900BBE0F900FBE0F901F901895CA
:103B2C00CF93DF93FC01218180819281382F321B4E
:103B3C0025812323492F421B2FEF290F8223282F66
:103B4C0030E0E901C40FD11DA92FB0E0AC17BD07BF
:103B5C0094F0DB014C9343815481249FC001259F39
:103B6C00900D349F900D112426813781820F931F65
:0E3B7C00DF91CF910895981BDB019C93ECCF55
:103B8A00CF93DF93FC0190818181981B2581922339
:103B9A0022813FEF320F8323482F50E0EA01C90FF9
:103BAA00D11DA22FB0E0AC17BD079CF0DB019C939E
:103BBA0023813481429FC001439F900D529F900DF3
:103BCA00112466817781680F791F80E8DF91CF9190
:0A3BDA000895281BDB012C93EBCFAC
:103BE40040E068ED88E790E00E94C82040E068ED7E
:103BF4008CE790E00E94C82042E068ED81E690E006
:103C04000E94C82040E068ED80E690E00E94C82051
:103C140040E068ED83E690E00E94C8204CE068ED47
:103C240088E690E00E94C82040E068ED82E690E0DB
:083C34000E94C82080E0089501
:103C3C008091050982FF08C0809172478D7F809327
:103C4C00724782E0809371478091724781FD13C067
:103C5C008B7F809372478FEF80936B478091050920
:103C6C00806C80930509809103098F7380930309FD
:0A3C7C0080917147089581E00895DA
:103C86000E947D1240E068ED80E890E00E94C82026
:103C9600E0E8F0E01186108640E068ED80E091E013
:103CA6000E94C8200E94F21D40E068ED80E590E089
:103CB6000E94C8200E9411200E9453200E94671E65
:083CC6000E942D200C94021F46
:103CCE00E0E0FAE081E090E080A791A782A793A7B9
:103CDE0084A795A710A211A21182128213821482B8
:103CEE00158216821782168680E6818781E082878A
:103CFE00138687EE93E086A397A3178685E08083CD
:043D0E0080E00895B4
:103D1200CF93DF93EC011BA21CA288E689831A824F
:103D22008BE99BE18A8F9B8F83ED9BE18C8F9D8F2B
:103D320086E399E18E8F9F8FCE010E94B314082EE5
:103D4200000C990B8BA39CA38BA19CA1DF91CF911B
:023D52000895D2
:103D5400E42FF0E0DF011197EA23FB23EF2BA9F412
:103D6400413898F46115710581F058E0FC01119215
:103D74005A95E9F7FC01428323833483668377836E
:0E3D8400440F4150458380E0089581E008958A
:103D92009091724791FD17C0926090937247811182
:103DA20009C082E0809370470E94371D0E94591F0C
:103DB20080E0089581E0809370470E94371D0E9441
:0A3DC200591F80E0089581E0089584
:103DCC00CF92DF92EF926B01E82E9A01A82FCB01D4
:103DDC002115310531F48C199D09EF90DF90CF90AE
:103DEC000895FC015A2F0E94B0206623A1F301967E
:083DFC00A11D21503109ECCF9B
:103E0400E0E2F8E08BE890E080879187158280EC0F
:103E1400868383E08783138614861686158683E754
:0C3E240097E480930240909303400895BF
:103E3000009749F080934F479093504760935B47BA
:103E400070935C47089580EE90E280934F47909383
:0C3E5000504710925B4710925C470895A9
:103E5C00009749F0809353479093544760935F4782
:103E6C0070936047089580EE90E28093534790934F
:0C3E7C00544710925F4710926047089571
:103E8800CF93DF93CDB7DEB79E012B5F3F4FF9018C
:103E98004191519161919F0180910240909103401D
:0A3EA8000E94D20ADF91CF91089525
:103EB2008091724781FD05C00EC08091050986FD83
:103EC20004C08091050987FFF8CF0E94371D8091B9
:083ED200724781FDF6CF08954F
:103EDA00CF93DF938091964790919747A091984707
:103EEA00B09199479C01AD0160E070E080E090E0FC
:063EFA00DF91CF91089555
:103F0000E0E0F9E084818860848385818160858335
:103F1000E2E7F7E480818D7F808382E080937147C0
:043F20008EE0089592
:103F2400FC01308181812581932F981B892F822365
:103F34009281981B892F691708F4862F380F232341
:043F44002083089539
:103F4800E0E0F9E0848188608483858181608583ED
:103F5800E2E7F7E480818D7F8083109271478EE0DD
:023F68000895BA
:103F6A00E0E0F9E0848184608483848183608483CF
:103F7A00E2E7F7E480818D7F80831092714780E0C9
:023F8A00089598
:103F8C009C019091724793FF0BC020936C47309328
:103F9C006D4760936E4770936F47977F909372470E
:023FAC00089576
:103FAE00FC0160817181828193810E94C61F60E055
:0E3FBE0070E082EE90E20E94181F82E00895EB
:103FCC001F920F920FB60F9211248F9381E0809362
:0E3FDC008A008F910F900FBE0F901F901895C6
:103FEA001F920F920FB60F9211248F938FEF87BBF8
:0C3FFA008F910F900FBE0F901F90189534
:10400600E0E0F9E0848183608483E2E7F7E480817D
:0C4016008D7F80831092714780E0089538
:10402200E0E0F9E0108212828FE0868381E08383F0
:0C403200858317821482108680E00895B8
:10403E00FC01318190812581931B892F8223681782
:0C404E0008F4862F380F232321830895E7
:10405A0040E068ED80E191E00E94C820E0E1F1E0F3
:0A406A0012821382789480E008951A
:10407400E2E7F7E480818160808380916B47880F59
:0A40840081608093070984E008952D
:10408E00E2E7F7E480818160808380916B47880F3F
:08409E008093070983E00895F7
:1040A600E0E4F9E081E28083118212821092B24745
:0640B600138280E0089572
:1040BC009091240895FFFCCF8093220880E090E03B
:0240CC00089555
:1040CE00E2E7F7E480818D7F80831092714780E074
:0240DE00089543
:1040E000EE0FFF1F0024001C0BBE0790F691E02D81
:0240F000099431
:1040F20057FD04C05BBF67917791089561917191FB
:0241020008951E
:104104002A193B094C095D096E097F09800B910B43
:0241140008950C
:104116002A153B054C055D056E057F058007910751
:024126000895FA
:0E412800E0E0F9E084818B7F848384E00895D9
:0E413600E0E0F9E084818B7F848383E00895CC
:0E414400E0E0F9E084818460848388E00895DF
:0E415200FC0190818181981B8581892308954D
:0E41600057FD03C05BBF67910895608108950D
:0C416E0080912408881F8827881F08956E
:0C417A0060910240709103400C945F1BA8
:0A4186008093A2479093A347089589
:0A4190001BBEFC0164BF40830895CC
:0A419A008093A8479093A947089569
:0841A400FC0111821082089554
:0441AC000C9400006F
:0441B0000C943A2011
:0441B4000C943A200D
:0441B8000C944720FC
:0441BC0085E00895FD
:0441C00081E00895FD
:0441C40081E00895F9
:0241C800089558
:0241CA00089556
:0241CC00089554
:0241CE00089552
:0241D000089550
:0241D20008954E
:0241D40008954C
:0241D60008954A
:0241D800089548
:0241DA00089546
:0241DC00089544
:0241DE00089542
:1041E00067203A204720E4174916E818DA20DC2037
:1041F000D820032094209B20B51FA220A41F231B9E
:04420000A31A801F5E
:0F4204000000000002000000005E20000000002B
:02421300EB209E
:02421500EC209B
:02421700EE2097
:02421900ED2096
:02000004008278
:090000000000000000C000000037
:00000001FF
