:100000000C94B8000C948A7C0C944D7C0C948A7CE3
:100010000C948A7C0C948A7C0C948A7C0C94A47634
:100020000C948A7C0C9414760C9444760C9474761C
:100030000C948A7C0C948A7C0C948A7C0C948A7C28
:100040000C948A7C0C948A7C0C948A7C0C948A7C18
:100050000C948A7C0C948A7C0C9404770C948A7C93
:100060000C948A7C0C948A7C0C948A7C0C948A7CF8
:100070000C948A7C0C94736E0C948A7C0C9497710B
:100080000C948A7C0C948A7C0C945E7C0C948A7C04
:100090000C948A7C0C948A7C0C948A7C0C948A7CC8
:1000A0000C948A7C0C948A7C0C948A7C0C948A7CB8
:1000B0000C948A7C0C948A7C0C948A7C0C948A7CA8
:1000C0000C948A7C0C948A7C0C948A7C0C948A7C98
:1000D0000C948A7C0C948A7C0C948A7C0C948A7C88
:1000E0000C948A7C0C948A7C0C28E328A9292D2A5C
:1000F0002D2A302BD52B762C472D152E022F512F44
:10010000A5270528AC40E6402E4170419F41C841DB
:10011000F1413642594240004BC8804BC84C660002
:10012000F9564C664E60804E604ED300F9F44ED3C3
:100130004EFB804EFB4F2200FA674F224F47804F05
:10014000474F6B00FA8E4F6B4F8F804F8F4FA00041
:10015000FAB24FA04FCA804FCA4FD200FAC34FD253
:100160004FD4804FD44FD600FACB4FD64FDB800010
:1001700011241FBECFEFCDBFDFE7DEBFE6E1F1E028
:1001800041E019C0B791A79137912791079107FDD9
:100190000EC097918791EF01F92FE82F0BBF0790C1
:1001A0000D92A217B307D9F7FE011BBE04C01D9222
:1001B000A217B307E1F7EF36F40721F70E94FD4FCE
:0801C0000C949C7BF894FFCF26
:1001C8004552524F523A2073656E736F7220696EB2
:1001D800697420726573756C74203D2025640A006B
:1001E8004552524F523A2073656E736F7220636F97
:1001F8006E66696775726174696F6E207265737572
:100208006C74203D2025640A00626D693136300027
:1002180073656E736F722074797065206973202519
:10022800730A0073656E736F722073616D706C650D
:100238002072617465207365742061742025644898
:100248007A0A00616363656C65726F6D65746572C7
:1002580020656E61626C65642077697468207261DC
:100268006E676520736574206174202B2F2D2564BB
:1002780047730A006779726F6D6574657220656EE1
:1002880061626C656420776974682072616E676565
:10029800207365742061742025644450530A005209
:1002A800756E6E696E67204D504C4142204D4C2052
:1002B8006B6E6F776C65646765207061636B207522
:1002C800756964200025303278004552524F523A01
:1002D80020476F742061206261642073656E736FBC
:1002E80072207374617475733A2025640A000A0ACF
:0C02F8000A4F76657272756E210A0A00CA
:100304007B224D6F64656C4E756D626572223A2571
:10031400642C22436C617373696669636174696FE9
:0B0324006E223A25640025730D0A00CC
:10032F0068076C094C836A9074A07AC00080688853
:06033F0000846C820081C5
:0D0345000404011020408002010808020499
:07035200286E756C6C290098
:06035900286E696C29000A
:10036000CF93DF93CDB7DEB76097CDBFDEBF80916F
:100370001E4F90911F4FA091204FB091214F892B7C
:100380008A2B8B2B09F4E8C010921E4F10921F4F3E
:100390001092204F1092214F19861A861B861C86B8
:1003A000D0C089859A85AB85BC85892B8A2B8B2B00
:1003B00069F480E091E0A0E0B0E089839A83AB83A8
:1003C000BC831D861E861F86188A00001D821E8221
:1003D0001F8218863CC0E981FA8189859A85880F39
:1003E000991F8B5E904BDC012D913C916D817E813C
:1003F00049815A81649FC001659F900D749F900D43
:100400001124880F991FB901680F791F89859A8572
:10041000880F991F895E904BDC012D913C914D8195
:100420005E81ABE0A49FC001A59F900D1124820FB7
:10043000931FAF010E946A398D819E81AF81B8857B
:100440000196A11DB11D8D839E83AF83B8878985D9
:100450009A85880F991F880F991F8550914BFC0131
:1004600020813181428153818D819E81AF81B88508
:1004700082179307A407B5070CF4ADCF1D821E8227
:100480001F8218863CC0ED85FE8589859A85880F78
:10049000991F875E904BDC012D913C916D817E818F
:1004A0004D855E85649FC001659F900D749F900D82
:1004B0001124880F991FB901680F791F89859A85C2
:1004C000880F991F855E904BDC012D913C914D81E9
:1004D0005E81ABE0A49FC001A59F900D1124820F07
:1004E000931FAF010E946A398D819E81AF81B885CB
:1004F0000196A11DB11D8D839E83AF83B887898529
:100500009A85880F991F880F991F8A59934BFC0170
:1005100020813181428153818D819E81AF81B88557
:1005200082179307A407B5070CF4ADCF89859A8588
:10053000AB85BC850196A11DB11D89879A87AB87C4
:10054000BC8789859A85AB85BC85181619061A065D
:100550001B060CF026CF000000006096CDBFDEBF6A
:10056000DF91CF910895CF93DF93CDB7DEB788ECBD
:1005700090E08093964C9093974C88EC90E0809319
:10058000984C9093994C86E99CE48093BC4C909352
:10059000BD4C1092B44C1092A24C1092A34C1092ED
:1005A000A44C1092A54C1092A64C1092A74C1092FD
:1005B000A84C1092A94C1092AA4C1092AB4C1092DD
:1005C000AC4C1092AD4C8091114F9091124F809392
:1005D000BE4C9093BF4C1092B14C81E090E0809360
:1005E000AF4C9093B04C81E08093B54C87E090E0A5
:1005F0008093B24C9093B34C84E090E08093B64CDF
:100600009093B74C8091134F9091144F8093B84CB6
:100610009093B94C1092D64C1092BB4C81E08093D1
:10062000BA4C8091174F9091184F8093C04C909383
:10063000C14C80911B4F90911C4F8093C24C909362
:10064000C34C80910F4F9091104F8093C44C909366
:10065000C54C1092AE4C84E090E0A0E0B0E08093F6
:100660009A4C90939B4CA0939C4CB0939D4C1092B1
:100670009E4C10929F4C1092A04C1092A14C81EE77
:1006800093E48093C64C9093C74C86EC92E480939D
:10069000C84C9093C94C83E593E48093CA4C9093E3
:1006A000CB4C83E996E48093CC4C9093CD4C8AEE6E
:1006B00095E48093CE4C9093CF4C8FEF9EE4809343
:1006C000D04C9093D14C80911D4F882351F01092C3
:1006D000D24C1092D34C1092D44C1092D54C109214
:1006E0001D4F0E94B00161E088E99EE40E94581A03
:1006F0000000DF91CF910895CF93DF93CDB7DEB7A0
:100700006297CDBFDEBF6F87788B898B9A8B2F85E1
:10071000388949E4429FC001439F900D11248255BE
:10072000934BFC018081882F90E0A0E0B0E08987A6
:100730009A87AB87BC8719821A821B821C8228C0C9
:1007400029853A8549E4429FC001439F900D1124B9
:100750008054934BFC012081318149815A816BE0A7
:10076000649FC001659F900D1124820F931F8D8798
:100770009E878D859E850E94FD3A89819A81AB81F5
:10078000BC810196A11DB11D89839A83AB83BC8373
:1007900029853A8549E4429FC001439F900D112469
:1007A0008656934BFC01208131814281538189819E
:1007B0009A81AB81BC8182179307A407B5070CF41B
:1007C000BFCF1D821E821F82188628C029853A85C8
:1007D00049E4429FC001439F900D11248E53934BD7
:1007E000FC01208131814D815E816BE0649FC001FD
:1007F000659F900D1124820F931F8D879E878D8595
:100800009E850E94FD3A8D819E81AF81B8850196BB
:10081000A11DB11D8D839E83AF83B88729853A853D
:1008200049E4429FC001439F900D11248256934B8F
:10083000FC0120813181428153818D819E81AF8174
:10084000B88582179307A407B5070CF4BFCF2F858F
:10085000388949E4429FC001439F900D11248E5571
:10086000934BFC0110821182128213822F853889EA
:1008700049E4429FC001439F900D11248A55934B38
:10088000FC0110821182128213822F85388949E47B
:10089000429FC001439F900D11248655934BFC014C
:1008A00010821182128213822F85388949E4429F77
:1008B000C001439F900D11248F54934BFC01108273
:1008C0002F85388949E4429FC001439F900D112430
:1008D0008C54934BFC01108281E090E0A0E0B0E0EA
:1008E000BC01CD016296CDBFDEBFDF91CF910895EF
:1008F000CF93DF93CDB7DEB72897CDBFDEBF6D8333
:100900007E838F83988781E090E0A0E0B0E08983C8
:100910009A83AB83BC832D813E8149E4429FC00111
:10092000439F900D11248654934BFC018081882FA6
:1009300090E00197A9F42D813E8149E4429FC001D6
:10094000439F900D11248554934BFC018081882F87
:1009500090E0A0E0B0E0BC01CD010E943F2004C0C7
:1009600019821A821B821C8289819A81AB81BC8187
:10097000BC01CD012896CDBFDEBFDF91CF91089598
:10098000CF93DF9300D000D0CDB7DEB769837A83F1
:100990008B839C8389819A81AB81BC81892B8A2B33
:1009A0008B2BD9F429813A8149E4429FC001439FAE
:1009B000900D11248454934BFC0140815181298175
:1009C0003A8169E4629FC001639F900D11248656AD
:1009D000934BBA010E942E66000029813A8149E4B6
:1009E000429FC001439F900D11248054934BFC0102
:1009F000808191810E947B3B00002496CDBFDEBFA9
:100A0000DF91CF910895CF93DF9300D000D0CDB781
:100A1000DEB769837A838B839C8389819A81AB81DA
:100A2000BC81BC01CD010E94C00481E090E0A0E047
:100A3000B0E0BC01CD012496CDBFDEBFDF91CF91E8
:100A40000895CF93DF9300D000D0CDB7DEB7698390
:100A50007A838B839C8329813A8149E4429FC00138
:100A6000439F900D11248F54934BFC0110822981D8
:100A70003A8149E4429FC001439F900D11248C5458
:100A8000934BFC01108200002496CDBFDEBFDF91A6
:100A9000CF910895CF93DF9300D000D0CDB7DEB7CC
:100AA00069837A838B839C8329813A8149E4429FBD
:100AB000C001439F900D11248C54934BFC01808105
:100AC0002496CDBFDEBFDF91CF910895CF92DF9204
:100AD000EF92FF920F931F93CF93DF93CDB7DEB7C3
:100AE0002C97CDBFDEBF69877A878B879C87298546
:100AF0003A8549E4429FC001439F900D11248E54D2
:100B0000934BFC014081518129853A8569E4629FBC
:100B1000C001639F900D11248F54934BFC01808181
:100B2000282F30E0429FC001439F900D529F900DAF
:100B30001124CC01A0E0B0E08D839E83AF83B88701
:100B400019821A821B821C8229C029853A8549E4B0
:100B5000429FC001439F900D11248254934BFC018E
:100B6000208131814D815E8189819A81840F951F19
:100B7000880F991F880F991F820F931FFC01108205
:100B800011821282138289819A81AB81BC81019684
:100B9000A11DB11D89839A83AB83BC8329853A85C6
:100BA00049E4429FC001439F900D11248E54934B02
:100BB000FC01808191819C0140E050E089819A8113
:100BC000AB81BC8182179307A407B5070CF4BDCF96
:100BD00029853A8549E4429FC001439F900D112425
:100BE0008054934BFC0180819181C12CD12C7601E2
:100BF000C39400E010E0980140E050E0BA010E9488
:100C0000826300002C96CDBFDEBFDF91CF911F9194
:100C10000F91FF90EF90DF90CF900895CF93DF93E7
:100C200000D000D0CDB7DEB769837A838B839C83F5
:100C300029813A8149E4429FC001439F900D1124CC
:100C40008F54934BFC01808141E0480F29813A8108
:100C500059E4529FC001539F900D11248F54934B20
:100C6000FC01408329813A8149E4429FC001439FAE
:100C7000900D11248F54934BFC018081282F30E07C
:100C800049815A8169E4649FC001659F900D1124D8
:100C90008B54934BFC018081882F90E0019728179B
:100CA000390769F429813A8149E4429FC001439F91
:100CB000900D11248C54934B21E0FC012083298159
:100CC0003A8149E4429FC001439F900D11248F5403
:100CD000934BFC01408129813A8159E4529FC00124
:100CE000539F900D11248B54934BFC018081481726
:100CF00060F029813A8149E4429FC001439F900DF1
:100D000011248F54934BFC01108200002496CDBF18
:100D1000DEBFDF91CF910895CF93DF93CDB7DEB7DC
:100D20002897CDBFDEBF6D837E838F8398872D810B
:100D30003E8149E4429FC001439F900D112484539A
:100D4000934BFC01208131814D815E8169E4649F78
:100D5000C001659F900D11248656934BF9010995AA
:100D6000DC01CB0189839A83AB83BC8389819A811F
:100D70002896CDBFDEBFDF91CF910895CF93DF934B
:100D8000CDB7DEB72897CDBFDEBF6D837E838F835F
:100D900098872D813E8149E4429FC001439F900D79
:100DA00011248253934BFC01208131814D815E815E
:100DB00069E4649FC001659F900D11248656934B92
:100DC000F9010995DC01CB0189839A83AB83BC834C
:100DD00089819A812896CDBFDEBFDF91CF9108959A
:100DE000CF93DF93CDB7DEB72C97CDBFDEBF69873A
:100DF0007A878B879C878FEF9FEFDC0189839A83AB
:100E0000AB83BC831D821E821F82188629853A858A
:100E100049E4429FC001439F900D11248A53934B94
:100E2000FC012081318149855A8569E4649FC001B4
:100E3000659F900D11248656934BAE014B5F5F4F1B
:100E4000BA01F9010995DC01CB0189839A83AB834F
:100E5000BC83000089819A81AB81BC81BC01CD013A
:100E60002C96CDBFDEBFDF91CF9108950F931F93D6
:100E7000CF93DF93CDB7DEB72E97CDBFDEBF8D8387
:100E80009E834F83588769877A870B871C872D87B6
:100E90003E8719821A821B821C822B853C8549E47D
:100EA000429FC001439F900D11248853934BFC0136
:100EB000208131814B855C8569E4649FC001659F19
:100EC000900D11248656934B4D815E81BA01F90134
:100ED0000995DC01CB0189839A83AB83BC8389812B
:100EE0009A81AB81BC81BC01CD012E96CDBFDEBF06
:100EF000DF91CF911F910F910895CF93DF93CDB7DD
:100F0000DEB72897CDBFDEBF6D837E838F83988742
:100F100019821A821B821C822D813E8149E4429FE4
:100F2000C001439F900D11248653934BFC012081F7
:100F300031818D819E81AF81B885AC01BD018AE987
:100F40009CE4F9010995DC01CB0189839A83AB8389
:100F5000BC8389819A81AB81BC810197A105B105D0
:100F600079F42D813E8149E4429FC001439F900D59
:100F700011248054934BFC01808191810E94693B34
:100F800089819A81AB81BC81BC01CD012896CDBFFE
:100F9000DEBFDF91CF910895CF93DF93CDB7DEB75A
:100FA0002897CDBFDEBF6D837E838F8398872D8189
:100FB0003E8149E4429FC001439F900D1124825518
:100FC000934BFC018081282F30E040E050E08D8180
:100FD0009E81AF81B885281739074A075B0709F05A
:100FE00067C019821A821B821C8257C029813A81EC
:100FF00049E4429FC001439F900D11248255934BB9
:10100000FC018081282F30E040E050E08D819E81FE
:10101000AF81B885281739074A075B0799F52981F9
:101020003A814B815C818D819E81AF81B885281783
:1010300039074A075B0731F189819A81AB81BC810D
:10104000BC01CD010E947D07DC01CB010197A10508
:10105000B105C1F489819A81AB81BC81BC01CD010C
:101060000E94660589819A81AB81BC81BC01CD015A
:101070000E94F00689819A81AB81BC81BC01CD01BF
:101080000E940E0689819A81AB81BC810196A11DC7
:10109000B11D89839A83AB83BC8389819A81AB819B
:1010A000BC81181619061A061B060CF09FCF01C04A
:1010B00000002896CDBFDEBFDF91CF910895CF937A
:1010C000DF93CDB7DEB72897CDBFDEBF6D837E83BC
:1010D0008F8398878FEF9FEFDC0189839A83AB839F
:1010E000BC838D819E81AF81B885BC01CD010E94FA
:1010F000BE060197E1F48D819E81AF81B885BC0168
:10110000CD010E948C06CC01A0E0B0E089839A83D7
:10111000AB83BC8389819A81AB81BC818F3F9F4F18
:10112000A105B10521F419821A821B821C828981D2
:101130009A81AB81BC81BC01CD012896CDBFDEBFB9
:10114000DF91CF9108950F931F93CF93DF93CDB786
:10115000DEB72E97CDBFDEBF8D839E834F8358872A
:1011600069877A870B871C872D873E878FEF9FEFD4
:10117000DC0189839A83AB83BC832B853C854D85B9
:101180005E858F819885A985BA85ED81FE8189016B
:101190009A01AC01BD01CF010E943607DC01CB01F1
:1011A000892B8A2B8B2B09F455C08B859C85AD85AB
:1011B000BE85BC01CD010E947D07DC01CB010197FA
:1011C000A105B10509F046C08B859C85AD85BE851E
:1011D000BC01CD010E9466058B859C85AD85BE85D1
:1011E000BC01CD010E94F006DC01CB010197A105F5
:1011F000B105D9F48B859C85AD85BE85BC01CD013B
:101200000E945F08DC01CB0189839A83AB83BC8396
:101210008B859C85AD85BE85BC01CD010E940E06E7
:1012200089819A81AB81BC8118C08B859C85AD85F5
:10123000BE85BC01CD010E9421058B859C85AD85B5
:10124000BE85BC01CD010E9403058EEF9FEFAFEF7D
:10125000BFEF03C08FEF9FEFDC01BC01CD012E96E5
:10126000CDBFDEBFDF91CF911F910F9108950F93F6
:101270001F93CF93DF93CDB7DEB72E97CDBFDEBFE1
:101280008D839E834F83588769877A870B871C8756
:101290002D873E878FEF9FEFDC0189839A83AB8395
:1012A000BC832B853C854D855E858F819885A9857E
:1012B000BA85ED81FE8189019A01AC01BD01CF01A2
:1012C0000E943607DC01CB01892B8A2B8B2B09F47A
:1012D00091C08B859C85AD85BE85BC01CD010E94EA
:1012E0007D07DC01CB010197A105B10509F082C0A2
:1012F0008B859C85AD85BE85BC01CD010E946605B0
:101300008B859C85AD85BE85BC01CD010E94F00614
:10131000DC01CB010197A105B10509F04EC08B8519
:101320009C85AD85BE85BC01CD010E944A05882300
:10133000F9F08B859C85AD85BE85BC01CD010E94F1
:101340005F08DC01CB0189839A83AB83BC838B85E7
:101350009C85AD85BE85BC01CD010E94CC078B85E7
:101360009C85AD85BE85BC01CD010E940E0620C0C6
:101370008EEF9FEFAFEFBFEF89839A83AB83BC8380
:101380008B859C85AD85BE85BC01CD010E94CC07B7
:101390008B859C85AD85BE85BC01CD010E940E0666
:1013A0008B859C85AD85BE85BC01CD010E94030562
:1013B00089819A81AB81BC8120C08B859C85AD855C
:1013C000BE85BC01CD010E94CC078B859C85AD8577
:1013D000BE85BC01CD010E940E068B859C85AD8526
:1013E000BE85BC01CD010E9403058EEF9FEFAFEFDC
:1013F000BFEF03C08FEF9FEFDC01BC01CD012E9644
:10140000CDBFDEBFDF91CF911F910F9108950F9354
:101410001F93CF93DF93CDB7DEB72E97CDBFDEBF3F
:101420008D839E834F83588769877A870B871C87B4
:101430002D873E878FEF9FEFDC0189839A83AB83F3
:10144000BC832B853C854D855E858F819885A985DC
:10145000BA85ED81FE8189019A01AC01BD01CF0100
:101460000E943607DC01CB01892B8A2B8B2B09F4D8
:101470008DC08B859C85AD85BE85BC01CD010E944C
:101480007D07DC01CB010197A105B10509F07EC004
:101490008B859C85AD85BE85BC01CD010E9466050E
:1014A0008B859C85AD85BE85BC01CD010E94F00673
:1014B000DC01CB010197A105B10509F04AC08B857C
:1014C0009C85AD85BE85BC01CD010E944A0588235F
:1014D00019F18B859C85AD85BE85BC01CD010E942F
:1014E0005F08DC01CB0189839A83AB83BC838B8546
:1014F0009C85AD85BE85BC01CD010E94CC078B8546
:101500009C85AD85BE85BC01CD010E9421058981E8
:101510009A81AB81BC813DC08B859C85AD85BE85A4
:10152000BC01CD010E940E068B859C85AD85BE85D4
:10153000BC01CD010E94CC078B859C85AD85BE8505
:10154000BC01CD010E94C0048EEF9FEFAFEFBFEF53
:1015500020C08B859C85AD85BE85BC01CD010E94D8
:10156000CC078B859C85AD85BE85BC01CD010E94D5
:101570000E068B859C85AD85BE85BC01CD010E9484
:1015800003058EEF9FEFAFEFBFEF03C08FEF9FEF2D
:10159000DC01BC01CD012E96CDBFDEBFDF91CF9126
:1015A0001F910F910895CF92DF92EF92FF920F93C8
:1015B0001F93CF93DF93CDB7DEB76297CDBFDEBF6A
:1015C0008D839E834F83588769877A870B871C8713
:1015D0002D873E87CF86D88AE98AFA8A19821A82AD
:1015E0001B821C826FC00F8118858F8198850E9495
:1015F000DC38DC01CB01FC0149815A812F8138851F
:10160000429FC001439F900D529F900D1124880F5F
:10161000991F2D813E81B901680F791F2F85388967
:1016200049E4429FC001439F900D11248054934B85
:10163000DC012D913C9149815A81ABE0A49FC0010E
:10164000A59F900D1124820F931F9801AF010E9456
:1016500099392F85388949E4429FC001439F900DF5
:1016600011248E55934BFC01108211821282138239
:101670002F85388949E4429FC001439F900D112472
:101680008A55934BDC011D921D921D921C9213975B
:101690002F85388949E4429FC001439F900D112452
:1016A0008655934BFC01108211821282138289812C
:1016B0009A81AB81BC810196A11DB11D89839A835A
:1016C000AB83BC8329813A814B815C818B859C856E
:1016D000AD85BE85281739074A075B070CF483CF11
:1016E00000006296CDBFDEBFDF91CF911F910F91B9
:1016F000FF90EF90DF90CF900895CF93DF93CDB719
:10170000DEB72897CDBFDEBF6D837E838F8398873A
:101710008D819E81AF81B885BC01CD010E947D077E
:10172000DC01CB010197A105B105C9F58D819E8131
:10173000AF81B885BC01CD010E9466058D819E8177
:10174000AF81B885BC01CD010E94F006DC01CB0160
:1017500089839A83AB83BC8389819A81AB81BC8165
:101760000197A105B105D9F48D819E81AF81B8851E
:10177000BC01CD010E945F08DC01CB0189839A8303
:10178000AB83BC838D819E81AF81B885BC01CD01C7
:101790000E940E0689819A81AB81BC8103C08FEFC4
:1017A0009FEFDC01BC01CD012896CDBFDEBFDF91EC
:1017B000CF910895CF93DF93CDB7DEB72897CDBFF4
:1017C000DEBF6D837E838F8398878FEF9FEFDC0171
:1017D00089839A83AB83BC838D819E81AF81B885D9
:1017E000BC01CD010E947D07DC01CB010197A10561
:1017F000B10509F04EC08D819E81AF81B885BC01D5
:10180000CD010E9466058D819E81AF81B885BC01A6
:10181000CD010E94F006DC01CB010197A105B105C5
:10182000D9F48D819E81AF81B885BC01CD010E9424
:101830005F08DC01CB0189839A83AB83BC838D81F4
:101840009E81AF81B885BC01CD010E940E068981C1
:101850009A81AB81BC8120C08D819E81AF81B8858A
:10186000BC01CD010E940E068D819E81AF81B8859D
:10187000BC01CD010E94C0048D819E81AF81B885DD
:10188000BC01CD010E94CC078EEF9FEFAFEFBFEF01
:1018900003C08FEF9FEFDC01BC01CD012896CDBFC7
:1018A000DEBFDF91CF910895CF93DF93CDB7DEB741
:1018B0002897CDBFDEBF6D837E838F8398878FEFA0
:1018C0009FEFDC0189839A83AB83BC838D819E81EA
:1018D000AF81B885BC01CD010E947D07DC01CB0141
:1018E0000197A105B10509F077C08D819E81AF8177
:1018F000B885BC01CD010E9466058D819E81AF81B6
:10190000B885BC01CD010E94F006DC01CB01019736
:10191000A105B10509F060C02D813E8149E4429FD7
:10192000C001439F900D11248F54934BFC01808183
:10193000282F30E04D815E8169E4649FC001659F7E
:10194000900D11248B54934BFC018081882F90E0E3
:1019500001972817390719F58D819E81AF81B885C8
:10196000BC01CD010E945F08DC01CB0189839A8311
:10197000AB83BC838D819E81AF81B885BC01CD01D5
:101980000E94CC078D819E81AF81B885BC01CD01BD
:101990000E94210589819A81AB81BC8120C08D8103
:1019A0009E81AF81B885BC01CD010E940E068D815C
:1019B0009E81AF81B885BC01CD010E94C0048D819C
:1019C0009E81AF81B885BC01CD010E94CC078EEF0E
:1019D0009FEFAFEFBFEF03C08FEF9FEFDC01BC01C4
:1019E000CD012896CDBFDEBFDF91CF9108950F9333
:1019F0001F93CF93DF93CDB7DEB72C97CDBFDEBF5C
:101A00006D837E838F83988749875A872B873C878E
:101A100081E090E0A0E0B0E089839A83AB83BC834F
:101A20008D819E81AF81B885892B8A2B8B2B69F59F
:101A30002D813E8149E4429FC001439F900D1124B6
:101A40008854934BFC01408151812D813E8169E492
:101A5000629FC001639F900D11248554934BFC013C
:101A60008081882F90E0A0E0B0E06B857C8529859F
:101A70003A858B01BC01CD010E94A51ADC01CB0186
:101A800089839A83AB83BC8305C019821A821B8227
:101A90001C82000089819A81AB81BC81BC01CD018F
:101AA0002C96CDBFDEBFDF91CF911F910F9108958E
:101AB0000F931F93CF93DF93CDB7DEB72E97CDBF94
:101AC000DEBF6D837E838F83988749875A872B87F4
:101AD0003C870D871E8781E090E0A0E0B0E089831D
:101AE0009A83AB83BC838D819E81AF81B885892B1E
:101AF0008A2B8B2B11F52D813E8149E4429FC00139
:101B0000439F900D11248554934BFC018081882FB5
:101B100090E0A0E0B0E06D857E852B853C85498511
:101B20005A858B01BC01CD010E94A51ADC01CB01B5
:101B300089839A83AB83BC8305C019821A821B8276
:101B40001C82000089819A81AB81BC81BC01CD01DE
:101B50002E96CDBFDEBFDF91CF911F910F910895DB
:101B6000CF93DF93CDB7DEB72A97CDBFDEBF6D83AE
:101B70007E838F83988749875A8781E090E0A0E031
:101B8000B0E089839A83AB83BC838D819E81AF81D2
:101B9000B885892B8A2B8B2B29F419821A821B82F8
:101BA0001C8205C019821A821B821C820000898156
:101BB0009A81AB81BC81BC01CD012A96CDBFDEBF2D
:101BC000DF91CF910895CF93DF93CDB7DEB72897FC
:101BD000CDBFDEBF6D837E838F83988781E090E0E9
:101BE000A0E0B0E089839A83AB83BC838D819E8122
:101BF000AF81B885892B8A2B8B2B29F419821A8205
:101C00001B821C8205C019821A821B821C82000062
:101C100089819A81AB81BC81BC01CD012896CDBF61
:101C2000DEBFDF91CF910895CF93DF93CDB7DEB7BD
:101C30002C97CDBFDEBF6F83788789879A874B87C4
:101C40005C8781E090E0A0E0B0E089839A83AB8379
:101C5000BC838B859C858D839E832F81388549E449
:101C6000429FC001439F900D11248654934BFC0169
:101C70008081882F90E0019779F52F81388549E49C
:101C8000429FC001439F900D11248554934BFC014A
:101C90008081882F90E0A0E0B0E0BC01CD010E94DF
:101CA000CE20DC01CB019C018D819E81FC01208333
:101CB00031832F81388549E4429FC001439F900DB5
:101CC00011248A54934BFC01208131818D819E81A6
:101CD000FC012283338305C019821A821B821C8275
:101CE000000089819A81AB81BC81BC01CD012C9619
:101CF000CDBFDEBFDF91CF9108950F931F93CF9398
:101D0000DF93CDB7DEB76097CDBFDEBF6F83788737
:101D100089879A872B873C874D875E870F87188B2B
:101D200081E090E0A0E0B0E089839A83AB83BC833C
:101D30008F8598898D839E832F81388549E4429FC2
:101D4000C001439F900D11248654934BFC01808168
:101D5000882F90E0019781F46D817E812B853C85F1
:101D60004D855E858F819885A985BA858B01BC01DB
:101D7000CD010E94CD1F05C019821A821B821C82D0
:101D8000000089819A81AB81BC81BC01CD01609644
:101D9000CDBFDEBFDF91CF911F910F910895CF93FB
:101DA000DF9300D000D0CDB7DEB769837A838B8311
:101DB0009C8389819A81AB81BC81181619061A0609
:101DC0001B0674F029813A8149E4429FC001439F78
:101DD000900D11248053934BFC018081918102C0AE
:101DE00080E090E02496CDBFDEBFDF91CF910895D3
:101DF000CF93DF9300D000D0CDB7DEB769837A836D
:101E00008B839C8329813A8149E4429FC001439F8F
:101E1000900D11248A54934BFC0180819181CC0157
:101E2000A0E0B0E0BC01CD012496CDBFDEBFDF91C4
:101E3000CF910895CF93DF93CDB7DEB72A97CDBF6B
:101E4000DEBF6D837E838F83988749875A87198287
:101E50001A821B821C8226C089819A8129853A8533
:101E6000820F931F4D815E8169E4649F9001659F9D
:101E7000300D11242854334BF901408151812981BF
:101E80003A81240F351FF9012081FC0120838981CB
:101E90009A81AB81BC810196A11DB11D89839A8372
:101EA000AB83BC832D813E8149E4429FC001439FA7
:101EB000900D11248A54934BFC01808191819C01E7
:101EC00040E050E089819A81AB81BC818217930701
:101ED000A407B5070CF200002A96CDBFDEBFDF9144
:101EE000CF910895CF93DF93CDB7DEB72C97CDBFB9
:101EF000DEBF6D837E838F83988749875A872B87C0
:101F00003C8719821A821B821C8226C089819A8191
:101F100029853A85820F931F4D815E8169E4649F14
:101F20009001659F300D11242854334BF9014081F5
:101F3000518129813A81240F351FF9012081FC014B
:101F4000208389819A81AB81BC810196A11DB11D3D
:101F500089839A83AB83BC832D813E8149E4429F70
:101F6000C001439F900D11248A54934BFC01808142
:101F700091819C0140E050E089819A81AB81BC81D4
:101F800082179307A407B5070CF22D813E8149E41F
:101F9000429FC001439F900D11248A54934BFC0132
:101FA00080819181282F8B859C85FC0120830000F6
:101FB0002C96CDBFDEBFDF91CF910895CF93DF93F5
:101FC000CDB7DEB72A97CDBFDEBF6D837E838F830B
:101FD000988749875A8719821A821B821C8234C0CB
:101FE0002D813E8149E4429FC001439F900D112401
:101FF0008254934BFC012081318189819A81880F21
:10200000991F880F991F280F391F89819A81880F7E
:10201000991F880F991F49855A85840F951FFC01C8
:1020200080819181A281B381F90180839183A28310
:10203000B38389819A81AB81BC810196A11DB11DB9
:1020400089839A83AB83BC832D813E8149E4429F7F
:10205000C001439F900D11248A54934BFC01808151
:1020600091819C0140E050E089819A81AB81BC81E3
:1020700082179307A407B5070CF4B2CF89819A8120
:10208000AB81BC81BC01CD012A96CDBFDEBFDF9103
:10209000CF910895CF93DF9300D000D0CDB7DEB7B6
:1020A00069837A838B839C8329813A8149E4429FA7
:1020B000C001439F900D11248A54934BFC018081F1
:1020C0009181CC01A0E0B0E0BC01CD012496CDBF50
:1020D000DEBFDF91CF910895CF93DF93CDB7DEB709
:1020E0002A97CDBFDEBF6D837E838F839887498714
:1020F0005A8719821A821B821C8234C089819A8174
:10210000880F991F880F991F29853A85280F391F35
:102110004D815E8169E4649FC001659F900D11242B
:102120008254934BFC014081518189819A81880FAF
:10213000991F880F991F840F951FFC018081918141
:10214000A281B381F90180839183A283B3838981C2
:102150009A81AB81BC810196A11DB11D89839A83AF
:10216000AB83BC832D813E8149E4429FC001439FE4
:10217000900D11248A54934BFC01808191819C0124
:1021800040E050E089819A81AB81BC81821793073E
:10219000A407B5070CF4B2CF89819A81AB81BC81C9
:1021A000BC01CD012A96CDBFDEBFDF91CF9108954E
:1021B000CF93DF93CDB7DEB72697CDBFDEBF698360
:1021C0007A838B839C834D835E8329813A8149E4A2
:1021D000429FC001439F900D11248E55934BDC010B
:1021E0002D913D914D915C9169817A81E9E4E69F61
:1021F000C001E79F900D11248B54934BFC0180810B
:10220000882F90E0FC01319789819A81880F991F6E
:10221000880F991F8856934BDC016D917C91E69F46
:10222000C001E79F900DF69F900D1124092E000C20
:10223000AA0BBB0B280F391F4A1F5B1F69817A81CC
:10224000E9E4E69FC001E79F900D11248155934B6F
:10225000FC0180819181CC01A0E0B0E0BC01CD0106
:102260000E94087BDC01CB012D813E81F901808336
:102270009183A283B38300002696CDBFDEBFDF919A
:10228000CF910895CF93DF93CDB7DEB72697CDBF1B
:10229000DEBF69837A838B839C834D835E83298130
:1022A0003A8149E4429FC001439F900D11248B5411
:1022B000934BFC018081882F90E0A0E0B0E02D815D
:1022C0003E81F90180839183A283B3830000269627
:1022D000CDBFDEBFDF91CF910895CF93DF9300D0C4
:1022E00000D0CDB7DEB769837A838B839C83298145
:1022F0003A8149E4429FC001439F900D11248E55BD
:10230000934BDC012D913D914D915C9169817A81D6
:10231000E9E4E69FC001E79F900D11248B54934B95
:10232000FC018081882F90E0FC01319789819A819E
:10233000880F991F880F991F8856934BDC016D9168
:102340007C91E69FC001E79F900DF69F900D1124B0
:10235000092E000CAA0BBB0B280F391F4A1F5B1F4D
:1023600069817A81E9E4E69FC001E79F900D11241D
:102370008155934BFC0180819181CC01A0E0B0E0BC
:10238000BC01CD010E94087BDC01CB01BC01CD0169
:102390002496CDBFDEBFDF91CF910895CF93DF9319
:1023A00000D000D0CDB7DEB769837A838B839C835E
:1023B00029813A8149E4429FC001439F900D112435
:1023C0008E55934BFC0180819181A281B381BC0128
:1023D000CD012496CDBFDEBFDF91CF910895CF937D
:1023E000DF9300D000D0CDB7DEB769837A838B83CB
:1023F0009C8329813A8149E4429FC001439F900D0B
:1024000011248656934BFC0180819181A281B38176
:10241000BC01CD012496CDBFDEBFDF91CF910895E1
:10242000CF92DF92EF92FF920F931F93CF93DF93A0
:10243000CDB7DEB76A97CDBFDEBF6D877E878F874A
:10244000988B298B3A8B4B8B5C8BED8AFE8A0F8B9A
:10245000188FC98EDA8E19821A821B821C821D8205
:102460001E821F82188668C019861A861B861C86E3
:102470004AC089819A81880F991F298D3A8D8901D7
:10248000080F191F2D893E894F89588D89859A8596
:10249000AB85BC85820F931FA41FB51F4D855E853C
:1024A00069E4649F9001659F300D11242054334BE3
:1024B000F901408151816D817E81EBE0E69F9001C1
:1024C000E79F300D1124240F351FAC01BD01C90158
:1024D0000E94D53AF8018083918389819A81AB81EA
:1024E000BC810196A11DB11D89839A83AB83BC83F6
:1024F00089859A85AB85BC850196A11DB11D89870B
:102500009A87AB87BC8729853A854B855C85898905
:102510009A89AB89BC89281739074A075B070CF4ED
:10252000A8CF8D819E81AF81B8850196A11DB11D77
:102530008D839E83AF83B8872D853E8549E4429F76
:10254000C001439F900D11248656934BFC012081BE
:102550003181428153818D819E81AF81B8858217FF
:102560009307A407B5070CF47FCF00006A96CDBF90
:10257000DEBFDF91CF911F910F91FF90EF90DF9021
:10258000CF900895CF93DF93CDB7DEB72A97CDBF15
:10259000DEBF6D837E838F83988749875A87198230
:1025A0001A821B821C8226C02D813E8149E4429FF3
:1025B000C001439F900D11248854934BFC0120814E
:1025C000318189819A81820F931F29813A814985BE
:1025D0005A85240F351FF9012081FC012083898150
:1025E0009A81AB81BC810196A11DB11D89839A831B
:1025F000AB83BC832D813E8149E4429FC001439F50
:10260000900D11248A54934BFC01808191819C018F
:1026100040E050E089819A81AB81BC8182179307A9
:10262000A407B5070CF289819A81AB81BC81BC01FA
:10263000CD012A96CDBFDEBFDF91CF910895CF9314
:10264000DF9300D000D0CDB7DEB769837A838B8368
:102650009C8389819A81AB81BC81BC01CD010E94A0
:102660008C06CC01A0E0B0E0BC01CD012496CDBF2A
:10267000DEBFDF91CF910895CF93DF93CDB7DEB763
:102680002A97CDBFDEBF6D837E838F83988749876E
:102690005A8781E090E0A0E0B0E089839A83AB8321
:1026A000BC832D813E8149E4429FC001439F900D30
:1026B00011248654934BFC018081882F90E0019770
:1026C00029F419821A821B821C8205C019821A827F
:1026D0001B821C82000089819A81AB81BC81BC0174
:1026E000CD012A96CDBFDEBFDF91CF910895CF9364
:1026F000DF93CDB7DEB72897CDBFDEBF6D837E8376
:102700008F83988781E090E0A0E0B0E089839A838E
:10271000AB83BC832D813E8149E4429FC001439F2E
:10272000900D11248654934BFC018081882F90E0FA
:10273000892B29F419821A821B821C8205C01982F6
:102740001A821B821C82000089819A81AB81BC8124
:10275000BC01CD012896CDBFDEBFDF91CF9108959A
:10276000CF93DF9300D000D0CDB7DEB769837A83F3
:102770008B839C8329813A8149E4429FC001439F16
:10278000900D11248A55934BFC0180819181A28187
:10279000B381BC01CD012496CDBFDEBFDF91CF91C7
:1027A0000895CF93DF9300D000D0CDB7DEB7698313
:1027B0007A838B839C8329813A8149E4429FC001BB
:1027C000439F900D11248A55934BDC012D913D912F
:1027D0004D915C9169817A81E9E4E69FC001E79FB0
:1027E000900D11248B54934BFC018081882F90E035
:1027F000FC01319789819A81880F991F880F991F51
:102800008856934BDC016D917C91E69FC001E79F58
:10281000900DF69F900D1124092E000CAA0BBB0BF6
:10282000281B390B4A0B5B0B69817A81E9E4E69F2F
:10283000C001E79F900D11248155934BFC018081CD
:102840009181CC01A0E0B0E0BC01CD010E94087BE9
:10285000DC01CB01BC01CD012496CDBFDEBFDF91F1
:10286000CF910895CF93DF9300D000D0CDB7DEB7DE
:1028700069837A838B839C8329813A8149E4429FCF
:10288000C001439F900D11248A52934BFC0180811B
:102890002496CDBFDEBFDF91CF910895CF93DF9314
:1028A000CDB7DEB72A97CDBFDEBF6D837E838F8322
:1028B000988749875A872D813E8149E4429FC0010C
:1028C000439F900D11248A52934BFC01908181E02B
:1028D0008927882309F054C019821A821B821C821E
:1028E00034C089819A81880F991F880F991F298583
:1028F0003A85280F391F4D815E8169E4649FC001CC
:10290000659F900D11248952934BFC0140815181A8
:1029100089819A81880F991F880F991F840F951FAD
:10292000FC0180819181A281B381F901808391832F
:10293000A283B38389819A81AB81BC810196A11D59
:10294000B11D89839A83AB83BC832D813E8149E489
:10295000429FC001439F900D11248A54934BFC0168
:10296000808191819C0140E050E089819A81AB8116
:10297000BC8182179307A407B5070CF4B2CF01C03E
:1029800000002A96CDBFDEBFDF91CF910895CF938F
:10299000DF93CDB7DEB72A97CDBFDEBF6D837E83D1
:1029A0008F83988749875A872D813E8149E4429FCA
:1029B000C001439F900D11248A52934BFC019081DA
:1029C00081E08927882309F054C019821A821B826A
:1029D0001C8234C089819A81880F991F880F991FA2
:1029E00029853A85280F391F4D815E8169E4649FEE
:1029F000C001659F900D11248752934BFC014081CB
:102A0000518189819A81880F991F880F991F840F9E
:102A1000951FFC0180819181A281B381F90180839E
:102A20009183A283B38389819A81AB81BC81019612
:102A3000A11DB11D89839A83AB83BC832D813E8107
:102A400049E4429FC001439F900D11248A54934B47
:102A5000FC01808191819C0140E050E089819A8154
:102A6000AB81BC8182179307A407B5070CF4B2CFE2
:102A700001C000002A96CDBFDEBFDF91CF9108953F
:102A8000CF93DF9300D000D0CDB7DEB769837A83D0
:102A90008B839C8329813A8149E4429FC001439FF3
:102AA000900D11248A52934BFC01908181E089277B
:102AB000882329F080E090E0A0E8BFEB0FC02981D7
:102AC0003A8149E4429FC001439F900D11248552F1
:102AD000934BFC0180819181A281B381BC01CD0126
:102AE0002496CDBFDEBFDF91CF910895CF93DF93C2
:102AF00000D000D0CDB7DEB769837A838B839C8307
:102B000029813A8149E4429FC001439F900D1124DD
:102B10008A52934BFC01908181E08927882321F020
:102B200080E090E0DC010FC029813A8149E4429FB6
:102B3000C001439F900D11248152934BFC01808171
:102B40009181A281B381BC01CD012496CDBFDEBFAE
:062B5000DF91CF91089512
:102B5600CF93DF9300D000D0CDB7DEB789839A83B9
:102B66006B837C8389819A81FC0180819181892B89
:102B760009F443C08B819C81892B09F43EC089816D
:102B86009A81FC01208131818B819C81281739072C
:102B960051F48B819C81FC012285338589819A8140
:102BA600FC01208331838B819C81FC018285938586
:102BB600892B69F08B819C81FC01828593852B8111
:102BC6003C81F90124853585FC01248735878B8175
:102BD6009C81FC0184859585892B89F08B819C815C
:102BE600FC01848595852B813C81F90122853385FD
:102BF600FC0122873387000002C0000001C00000EC
:102C06002496CDBFDEBFDF91CF910895CF93DF939A
:102C1600CDB7DEB72897CDBFDEBF8D839E836F838A
:102C260078878D819E8189839A838F8198858B830E
:102C36009C8389819A81FC01228133818B819C81CD
:102C4600FC0182819381A901481B590BCA01CC0161
:102C5600A0E0B0E0BC01CD012896CDBFDEBFDF917C
:102C6600CF910895CF93DF93CDB7DEB7A297CDBFAF
:102C7600DEBF8F8F98A369A34AA38F8D98A1892B56
:102C860019F480E090E0A7C181E090E0A0E0B0E018
:102C960089879A87AB87BC878F8D98A189839A830A
:102CA6008F8D98A18D8F9E8F1F8E18A21F821886DA
:102CB6001D861E861F86188A57C18D859E85AF85FF
:102CC600B8890196A11DB11D8D879E87AF87B88BE8
:102CD60089819A818B839C83198A1A8A1B8A1C8A0A
:102CE600198E1A8E1B8E1C8E39C089899A89AB89DA
:102CF600BC890196A11DB11D898B9A8BAB8BBC8BB0
:102D060089A18823A9F08B819C81FC0122853385CA
:102D16008D8D9E8D2817390731F08B819C81FC01A2
:102D26008285938502C080E090E08B839C8307C0F8
:102D36008B819C81FC01828593858B839C838B810F
:102D46009C81892BD1F0898D9A8DAB8DBC8D019696
:102D5600A11DB11D898F9A8FAB8FBC8F298D3A8D9E
:102D66004B8D5C8D89859A85AB85BC85281739077F
:102D76004A075B070CF4B9CF01C0000089859A8524
:102D8600AB85BC858D8B9E8BAF8BB88FD1C0898967
:102D96009A89AB89BC89892B8A2B8B2B29F58B8148
:102DA6009C818D839E838B819C81FC01828593858A
:102DB6008B839C838D899E89AF89B88D0197A109E4
:102DC600B1098D8B9E8BAF8BB88F89A1882309F4AF
:102DD60091C02B813C818D8D9E8D2817390709F076
:102DE60089C01B821C8286C08D899E89AF89B88D59
:102DF600892B8A2B8B2B21F08B819C81892B29F5A2
:102E060089819A818D839E8389819A81FC0182853D
:102E1600938589839A8389899A89AB89BC89019725
:102E2600A109B109898B9A8BAB8BBC8B89A18823AD
:102E360009F45FC029813A818D8D9E8D2817390747
:102E460009F057C019821A8254C02B813C818981AE
:102E56009A81B9010E940916DC01CB0118161906E0
:102E66001A061B061CF189819A818D839E838981AE
:102E76009A81FC018285938589839A8389899A89B7
:102E8600AB89BC890197A109B109898B9A8BAB8B58
:102E9600BC8B89A1882371F129813A818D8D9E8D04
:102EA6002817390739F519821A8224C08B819C812B
:102EB6008D839E838B819C81FC01828593858B8388
:102EC6009C838D899E89AF89B88D0197A109B10927
:102ED6008D8B9E8BAF8BB88F89A1882359F02B8160
:102EE6003C818D8D9E8D2817390721F41B821C820B
:102EF60001C000008F819885892B41F08F819885CC
:102F06002D813E81FC012287338704C08D819E81FD
:102F16008F8F98A38AA1882339F08D819E812F8176
:102F26003885FC01248735878D819E818F8398871C
:102F360089899A89AB89BC89181619061A061B064F
:102F46000CF425CF8D899E89AF89B88D1816190680
:102F56001A061B062CF48B819C81892B09F017CF4E
:102F66008B819C8189839A8389819A81892B09F037
:102F7600A4CE89A1882391F08F8198852F8D38A1C1
:102F8600FC01228733878AA1882369F08F8D98A157
:102F96002F813885FC012487358705C08F81988568
:102FA600FC01128613868D859E85AF85B8890297AA
:102FB600A105B1051CF48F8D98A10DC089859A8550
:102FC600AB85BC85880F991FAA1FBB1F89879A8767
:102FD600AB87BC8761CEA296CDBFDEBFDF91CF9116
:102FE6000895CF93DF93CDB7DEB78091524E90917F
:102FF600534E41E061E00E9435168093524E909305
:10300600534E8091524E9091534EDF91CF91089539
:10301600EF92FF920F931F93CF93DF93CDB7DEB757
:103026002697CDBFDEBF8E831D8210924D4E109225
:103036004E4E10924F4E1092504E80914D4E9091A2
:103046004E4EA0914F4EB091504E0797A105B10537
:1030560014F481E08D838D81882309F4FFC11982E0
:103066001A821B821C82F1C020914D4E30914E4E29
:1030760040914F4E5091504E89819A81AB81BC81CF
:1030860079018A01E80EF91E0A1F1B1F20914D4E79
:1030960030914E4E40914F4E5091504E89819A81BB
:1030A600AB81BC81820F931FA41FB51F0196A11D82
:1030B600B11D9C01C901880F991F9C01C901880F88
:1030C600991F880F991F880F991F821B930BAC01BC
:1030D6004551524BC7019C01C901880F991F9C019C
:1030E600C901880F991F880F991F880F991F821B86
:1030F600930B8B50924BDC014D935C9320914D4E7C
:1031060030914E4E40914F4E5091504E89819A814A
:10311600AB81BC81820F931FA41FB51F2E81422F46
:1031260050E09C01C901880F991F9C01C901880FB5
:10313600991F880F991F880F991F821B930B855122
:10314600924BFC014083518389819A81AB81BC817A
:10315600892B8A2B8B2B21F520914D4E30914E4E8B
:1031660040914F4E5091504E89819A81AB81BC81DE
:10317600820F931FA41FB51F9C01C901880F991FB9
:103186009C01C901880F991F880F991F880F991FE5
:10319600821B930B8950924BDC011D921C924AC0F4
:1031A60020914D4E30914E4E40914F4E5091504E83
:1031B60089819A81AB81BC8179018A01E80EF91E69
:1031C6000A1F1B1F20914D4E30914E4E40914F4E7F
:1031D6005091504E89819A81AB81BC81820F931F99
:1031E600A41FB51F0197A109B1099C01C901880F48
:1031F600991F9C01C901880F991F880F991F880F75
:10320600991F821B930BAC014551524BC7019C0180
:10321600C901880F991F9C01C901880F991F880F42
:10322600991F880F991F821B930B8950924BFC01A3
:103236004083518389819A81AB81BC810196A11D0E
:10324600B11D89839A83AB83BC8320914448309116
:1032560045488E81482F50E063E1649FC001659F19
:10326600900D1124820F931FDC0111968D919C9174
:1032760012979C0140E050E089819A81AB81BC8124
:1032860082179307A407B5070CF4EECE80914D4E36
:1032960090914E4EA0914F4EB091504E2E81422F9E
:1032A60050E09C01C901880F991F9C01C901880F34
:1032B600991F880F991F880F991F821B930B8551A1
:1032C600924BFC014083518320914D4E30914E4EDE
:1032D60040914F4E5091504E89819A81AB81BC816D
:1032E600820F931FA41FB51FAC01BD0141505109A8
:1032F6006109710980914D4E90914E4EA0914F4EAD
:10330600B091504E9C01C901880F991F9C01C901BB
:10331600880F991F880F991F880F991F821B930B7F
:10332600FC01E551F24BCA019C01C901880F991FA6
:103336009C01C901880F991F880F991F880F991F33
:10334600821B930B8B50924BDC01ED93FC93E09028
:103356004D4EF0904E4E00914F4E1091504E209192
:103366004D4E30914E4E40914F4E5091504E898168
:103376009A81AB81BC81820F931FA41FB51F019751
:10338600A109B1099C01C901880F991F9C01C901B6
:10339600880F991F880F991F880F991F821B930BFF
:1033A600AC014551524BC7019C01C901880F991FB9
:1033B6009C01C901880F991F880F991F880F991FB3
:1033C600821B930B8950924BFC0140835183809161
:1033D6004D4E90914E4EA0914F4EB091504E9C0145
:1033E600C901880F991F9C01C901880F991F880F71
:1033F600991F880F991F821B930B8551924B8093BF
:10340600524E9093534E20914448309145488E81B8
:10341600482F50E063E1649FC001659F900D112421
:10342600820F931FDC0111968D919C9112979C013E
:1034360040E050E080914D4E90914E4EA0914F4EFF
:10344600B091504E820F931FA41FB51F80934D4E0F
:1034560090934E4EA0934F4EB093504E8091524E45
:103466009091534E2696CDBFDEBFDF91CF911F912F
:103476000F91FF90EF900895CF93DF9300D00F92B6
:10348600CDB7DEB789839A836B8389819A818093CE
:103496004448909345488B818093514E80E0239613
:1034A600CDBFDEBFDF91CF910895CF93DF9300D0DC
:1034B6000F92CDB7DEB789839A836B8389819A8110
:1034C60080934448909345488B818093514E80E089
:1034D6002396CDBFDEBFDF91CF910895CF93DF93C3
:1034E60000D000D0CDB7DEB78C831A821B8219823A
:1034F6001DC020914448309145488981482F50E0AD
:1035060063E1649FC001659F900D1124820F931F94
:10351600FC0190818C81981731F48981882F90E085
:103526008A839B8308C089818F5F89838091514EEE
:1035360099819817F0F28A812496CDBFDEBFDF917C
:10354600CF9108950F931F93CF93DF93CDB7DEB737
:103556006297CDBFDEBF69877A878B879C874D8749
:103566005E872F87388B098B1A8B1D821E82898571
:103576000E94711A882F90E08D839E832091444883
:10358600309145484D815E8163E1649FC001659F2E
:10359600900D1124820F931FFC01218132814091ED
:1035A6004448509145486D817E81E3E1E69FC00124
:1035B600E79F900D1124840F951FFC01858196814C
:1035C6002817390720F08FEF9FEFDC01CCC0209140
:1035D6004448309145484D815E8163E1649FC00156
:1035E600659F900D1124820F931FFC0181819281AA
:1035F6008F83988719821A821B821C8232C020917F
:103606004448309145484D815E8163E1649FC00125
:10361600659F900D1124820F931FFC012585368529
:103626008F819885880F991F880F991F280F391F3A
:1036360089819A814D855E85840F951FFC014081A5
:1036460089819A81820F931FFC01408389819A8127
:10365600AB81BC810196A11DB11D89839A83AB8381
:10366600BC8320914448309145484D815E8163E199
:10367600649FC001659F900D1124820F931FFC016A
:10368600838194819C0140E050E089819A81AB81DD
:10369600BC8182179307A407B5070CF4B0CF20911D
:1036A6004448309145484D815E8163E1649FC00185
:1036B600659F900D1124820F931FFC012785308989
:1036C6008F819885880F991F880F991F820F931FE6
:1036D60029893A89FC01208331832091444830911D
:1036E60045484D815E8163E1649FC001659F900DF1
:1036F6001124820F931FFC01278530898F819885BD
:10370600880F991F880F991F820F931F2F8538895D
:10371600FC012283338320914448309145484D81F2
:103726005E8163E1649FC001659F900D1124820F45
:10373600931F40914448509145486D817E81E3E155
:10374600E69F9001E79F300D1124240F351FF901E4
:10375600218132812F5F3F4FFC012183328381E03B
:1037660090E0A0E0B0E0BC01CD016296CDBFDEBF27
:10377600DF91CF911F910F9108950F931F93CF93D0
:10378600DF93CDB7DEB76697CDBFDEBF6D877E8789
:103796008F87988B498B5A8B2B8B3C8B0D8B1E8B73
:1037A60019821A828D850E94711A882F90E089836A
:1037B6009A83209144483091454849815A8163E172
:1037C600649FC001659F900D1124820F931F8B8308
:1037D6009C838B899C89892B59F08B819C81FC0168
:1037E6008781282F30E08B899C892817390778F440
:1037F60088EC9BE4892F8F9388EC9BE48F930E943F
:1038060086790F900F908FEF9FEFDC015BC01986D2
:103816001A86ED859E01295F3F4F89899A89A901FC
:10382600BC018E2F0E94E52689859A85019681F432
:103836006D897E892B893C8949895A898D859E8522
:10384600AF85B8898B01BC01CD010E94A51A36C08F
:1038560029853A858B899C892817390721F18D8519
:103866009E85AF85B889BC01CD010E943B258F811D
:103876009885969587952D893E892817390708F4E6
:10388600C9018D839E836D897E892B893C894989EF
:103896005A898D859E85AF85B8898B01BC01CD017E
:1038A6000E94A51A0BC029853A858B899C89281701
:1038B600390721F480E090E0DC0104C081E090E06B
:1038C600A0E0B0E0BC01CD016696CDBFDEBFDF91C2
:1038D600CF911F910F910895CF93DF93CDB7DEB7A8
:1038E6006297CDBFDEBF6B877C878D879E874F87AC
:1038F600588B298B3A8B19821A828B850E94711AF2
:10390600882F90E089839A832091444830914548D6
:1039160049815A8163E1649FC001659F900D11241E
:10392600820F931F8B839C8389899A89892B59F0EF
:103936008B819C81FC018781282F30E089899A89B7
:103946002817390760F488EC9BE4892F8F9388EC5D
:103956009BE48F930E9454790F900F909EC0EB8545
:103966009E012B5F3F4F8F859889A901BC018E2F41
:103976000E94E5262F81388589899A892817390773
:10398600D9F08B819C81FC014189528929853A8530
:10399600C901880F991F880F991F880F991F820FD9
:1039A600931F840F951FFC0120813181215031091D
:1039B600FC012083318332C02F81388589899A8919
:1039C60028173907D9F48B819C81FC0141895289DA
:1039D60029853A85C901880F991F880F991F880F75
:1039E600991F820F931F840F951FFC01208131813F
:1039F6002F5F3F4FFC012083318310C08F81988554
:103A0600019661F488EE9BE4892F8F9388EE9BE400
:103A16008F930E9454790F900F903FC08B819C81A9
:103A2600FC014189528929853A85C901880F991F68
:103A3600880F991F880F991F820F931F9A01280FCD
:103A4600391F89899A890197A901480F591F4E5F25
:103A56005F4FFA0140814F5F820F931F0296FC0170
:103A6600408329853A858F819885432F4F932F93DD
:103A76002A892F9329892F93292F2F938F938FEF9D
:103A86009BE4892F8F938FEF9BE48F930E94547949
:103A96008DB79EB70896CDBFDEBF6296CDBFDEBF9F
:103AA600DF91CF910895CF93DF93CDB7DEB76297BD
:103AB600CDBFDEBF6F87788B898B9A8B1B861C8662
:103AC6001A828F850E94711A882F90E08B879C87B7
:103AD60020914448309145484B855C8563E1649F5D
:103AE600C001659F900D1124820F931F8D879E87BD
:103AF6001B821C821D821E82DFC08D859E85FC0175
:103B0600418952892B813C81C901880F991F880FF1
:103B1600991F880F991F820F931F840F951FFC0111
:103B260080819181292F2F938F938E818F938D8101
:103B36008F938C818F938B818F9386E19CE4892F61
:103B46008F9386E19CE48F930E9454798DB79EB73C
:103B56000896CDBFDEBF8D859E85FC0141895289C1
:103B66002B813C81C901880F991F880F991F880FE7
:103B7600991F820F931F840F951FFC0180819181ED
:103B860099230CF08EC081E089831F8218861986DE
:103B96001A8646C08D859E85FC01418952892B81F6
:103BA6003C81C901880F991F880F991F880F991F9B
:103BB600820F931F9A01280F391F8F819885820FD4
:103BC600931F0296FC0190818A818917F0F48D85F6
:103BD6009E85FC01418952892B813C81C901880F50
:103BE600991F880F991F880F991F820F931F9A019B
:103BF600280F391F8F819885820F931F0296FC012B
:103C060080818A838F818F5F89838F819885A9853B
:103C1600BA850196A11DB11D8F839887A987BA879A
:103C26008D859E85FC018781282F30E040E050E09D
:103C36008F819885A985BA8582179307A407B5074A
:103C46000CF4A8CF8981882F90E0292F2F938F938A
:103C56008E818F938D818F938C818F938B818F93A0
:103C66008AE29CE4892F8F938AE29CE48F930E94D8
:103C760054798DB79EB70896CDBFDEBF8D859E85DC
:103C8600FC01278530898B819C81880F991F880FBD
:103C9600991F820F931F2981222F30E0FC01228376
:103CA60033838B819C81AD81BE810196A11DB11D9F
:103CB6008B839C83AD83BE838D859E85FC0181812C
:103CC60092819C0140E050E08B819C81AD81BE8158
:103CD60082179307A407B5070CF40FCF1B821C822B
:103CE6001D821E825BC01F82188619861A8625C011
:103CF6008D859E85FC01418952892B813C81C901B4
:103D0600880F991F880F991F880F991F820F931F7D
:103D16009A01280F391F8F819885820F931F02966B
:103D2600FC0110828F819885A985BA850196A11D0F
:103D3600B11D8F839887A987BA878D859E85FC01DB
:103D46008781282F30E040E050E08F819885A98553
:103D5600BA8582179307A407B50754F28D859E8509
:103D6600FC01418952892B813C81C901880F991F29
:103D7600880F991F880F991F820F931F840F951F15
:103D8600FC01108211828B819C81AD81BE810196DE
:103D9600A11DB11D8B839C83AD83BE838D859E85BE
:103DA600FC01818192819C0140E050E08B819C81E5
:103DB600AD81BE8182179307A407B5070CF493CF94
:103DC60000006296CDBFDEBFDF91CF910895CF93FD
:103DD600DF93CDB7DEB76097CDBFDEBF6D877E8739
:103DE6008F87988B19861A868D850E94711A882F5F
:103DF60090E089879A8720914448309145484985C3
:103E06005A8563E1649FC001659F900D1124820F5E
:103E1600931F8B879C8719821A821B821C82A1C0E2
:103E26008B859C85FC014189528929813A81C9018A
:103E3600880F991F880F991F880F991F820F931F4C
:103E4600840F951FFC0180819181292F2F938F93D9
:103E56008C818F938B818F938A818F9389818F93A6
:103E660088E49CE4892F8F9388E49CE48F930E94D6
:103E760054798DB79EB70896CDBFDEBF1D821E82D0
:103E86001F82188646C08B859C85FC014189528914
:103E960029813A81C901880F991F880F991F880FB8
:103EA600991F820F931F9A01280F391F8D819E81BA
:103EB600820F931F0296FC018081282F30E08D81AE
:103EC6009E81AF81B8850196A11DB11D432F4F93E9
:103ED6002F932B2F2F932A2F2F93292F2F938F93A7
:103EE6008AE59CE4892F8F938AE59CE48F930E9450
:103EF60054798DB79EB70896CDBFDEBF8D819E8162
:103F0600AF81B8850196A11DB11D8D839E83AF83B8
:103F1600B8878B859C85FC018781282F30E040E09F
:103F260050E08D819E81AF81B88582179307A407E3
:103F3600B5070CF4A8CF83E69CE4892F8F9383E61C
:103F46009CE48F930E9454790F900F9089819A81F7
:103F5600AB81BC810196A11DB11D89839A83AB8378
:103F6600BC838B859C85FC01818192819C0140E00C
:103F760050E089819A81AB81BC8182179307A4079F
:103F8600B5070CF44DCF00006096CDBFDEBFDF91C4
:103F9600CF9108950F931F93CF93DF93CDB7DEB7DD
:103FA6002E97CDBFDEBF6D837E838F83988729874B
:103FB6003A874B875C870D871E8719821A828D8107
:103FC6000E94711A882F90E089839A832091444831
:103FD6003091454849815A8163E1649FC001659FDC
:103FE600900D1124820F931F8B839C838B819C8160
:103FF600FC012785308989859A85880F991F880F46
:10400600991F820F931FFC01228133818D859E8526
:10401600FC01228333838B819C81FC0127853089B7
:1040260089859A85880F991F880F991F820F931F7C
:10403600FC01208131818D859E85FC0120833183A1
:104046008B819C81FC012585368589859A85880F1B
:10405600991F880F991F820F931F9C018D859E853E
:10406600FC012483358300002E96CDBFDEBFDF9191
:10407600CF911F910F910895CF93DF93CDB7DEB700
:104086002A97CDBFDEBF6F83788789879A871D827F
:104096001E828F810E94711A882F90E08D839E83E5
:1040A60020914448309145484D815E8163E1649F8B
:1040B600C001659F900D1124820F931FFC01118290
:1040C60012821092524E1092534E19821A821B82FD
:1040D6001C8251C089819A819C01C901880F991F50
:1040E6009C01C901880F991F880F991F880F991F76
:1040F600821B930B8551924BFC01208131818D816E
:104106009E812817390761F589819A819C01C90129
:10411600880F991F9C01C901880F991F880F991F45
:10412600880F991F821B930B8551924B2FEF3FEF00
:10413600FC012083318389819A819C01C901880F02
:10414600991F9C01C901880F991F880F991F880F15
:10415600991F821B930B8151924BFC011082118295
:1041660089819A81AB81BC810196A11DB11D89838C
:104176009A83AB83BC8389819A81AB81BC81079783
:10418600A105B1050CF4A6CF00002A96CDBFDEBF6F
:10419600DF91CF910895CF93DF93CDB7DEB7269702
:1041A600CDBFDEBF6B837C838D839E8319821A828B
:1041B6008B810E94711A882F90E089839A832091BF
:1041C60044483091454849815A8163E1649FC00162
:1041D600659F900D1124820F931FFC0181819281AE
:1041E600CC01A0E0B0E0BC01CD012696CDBFDEBF7C
:1041F600DF91CF910895CF92EF92FF920F931F9385
:10420600CF93DF93CDB7DEB76097CDBFDEBF8C8788
:104216006D877E874F87588B1D821E828C850E94F4
:10422600711A882F90E08D839E838D810E940B18D2
:104236008093524E9093534E8FEF9FEF8B839C83C8
:104246008F859889DC011D921C9219821A8281C27F
:104256008091524E9091534E40914448509145481A
:104266006D817E81E3E1E69F9001E79F300D112489
:10427600240F351FF9014785508929813A81220F7C
:10428600331F220F331F240F351FD90112962D918C
:104296003C911397FC01248335838091524E909173
:1042A600534E40914448509145486D817E81E3E1EB
:1042B600E69F9001E79F300D1124240F351FD90189
:1042C6001F964D915C91509729813A81220F331F99
:1042D600220F331F240F351FF90120813181DC01A4
:1042E60018962D933C9319978091524E9091534E68
:1042F60029813A81FC01268337838091524E909121
:10430600534EDC0112961D921C921397209144483D
:10431600309145484D815E8163E1649FC001659F90
:10432600900D1124820F931FFC0183859485892BA0
:1043360009F048C020914448309145484D815E813E
:1043460063E1649FC001659F900D1124820F931F46
:10435600DC0113968D919C911497CC01A0E0B0E0FE
:1043660040914448509145486D817E81E3E1E69F46
:104376009001E79F300D1124240F351FF901458563
:10438600568529813A81220F331F220F331F240FAE
:10439600351FF901AE01495F5F4F6D857E858C0142
:1043A6009D01CF010E94D2682091524E3091534E0A
:1043B6008F819885A985BA85D90112968D939C938C
:1043C60013976FC120914448309145484D815E81D5
:1043D60063E1649FC001659F900D1124820F931FB6
:1043E600FC0183859485019709F04AC01B862091BC
:1043F6004448309145484D815E8163E1649FC00128
:10440600659F900D1124820F931FDC0113968D91E9
:104416009C911497CC01A0E0B0E0409144485091A3
:1044260045486D817E81E3E1E69F9001E79F300D6F
:104436001124240F351FF9014585568529813A81B6
:10444600220F331F220F331F240F351FF9019E0140
:10445600255F3F4F6D857E857C018D014CE55EE4D1
:10446600CF010E9475678091524E9091534E2B85D5
:10447600222F30E0DC0112962D933C93139711C145
:1044860020914448309145484D815E8163E1649FA7
:10449600C001659F900D1124820F931FFC01838537
:1044A6009485029709F0FDC01B86209144483091FF
:1044B60045484D815E8163E1649FC001659F900D13
:1044C6001124820F931FDC011896EC90209144482A
:1044D600309145484D815E8163E1649FC001659FCF
:1044E600900D1124820F931FFC016381748120912A
:1044F6004448309145484D815E81E3E1E49FC00127
:10450600E59F900D1124820F931FDC0118968C9164
:10451600282F30E0CB01B9010E94537ACB018C01E0
:1045260020E030E040914448509145486D817E81BD
:10453600E3E1E69FC001E79F900D1124840F951FCC
:10454600DC011396ED91FC911497409144485091EB
:1045560045486D817E81A3E1A69FC001A79F900D6E
:104566001124840F951FDC0118968C91482F50E07A
:10457600CF01BA010E94537ACB01CC01A0E0B0E092
:104586006091444870914548ED81FE810F2EF3E11C
:10459600FF2EF02DFE9EA001FF9E500D1124460F0A
:1045A600571FFA016585768549815A81440F551F43
:1045B600440F551F460F571FBA01ED85FE85CE2CB9
:1045C600780189019C01AD01CF010E94EC67E09062
:1045D600524EF090534E20914448309145484D81BB
:1045E6005E8163E1649FC001659F900D1124820F77
:1045F600931FDC0113966D917C911497209144488A
:10460600309145484D815E81E3E1E49FC001E59F1D
:10461600900D1124820F931FFC018085282F30E016
:10462600CB01B9010E94537ACB018C0120E030E026
:1046360040914448509145486D817E81E3E1E69F73
:10464600C001E79F900D1124840F951FDC0113967E
:10465600ED91FC91149740914448509145486D81E5
:104666007E81A3E1A69FC001A79F900D1124840F10
:10467600951FDC0118968C91482F50E0CF01BA01A6
:104686000E94537ACB01CC01A0E0B0E0A9019801C9
:10469600BC01CD010E941168DC01CB01F7018283C8
:1046A60093838091524E9091534EDC0112962D9138
:1046B6003C9113978091524E9091534EFC01808508
:1046C600918528173907B8F58B819C810196F9F0F9
:1046D6008091524E9091534EDC0114962D913C914F
:1046E60015978B819C812817390789F08091524E46
:1046F6009091534EFC01848195818B839C838F8599
:10470600988922E030E0DC012D933C9314C08B8124
:104716009C81019681F48091524E9091534EFC01FA
:10472600848195818B839C838F85988921E030E0F5
:10473600DC012D933C938091524E9091534E0E96F0
:104746008093524E9093534E89819A810196898324
:104756009A8320914448309145484D815E8163E1BA
:10476600649FC001659F900D1124820F931FFC0169
:104776002181328189819A818217930708F468CD55
:1047860080E090E0DC01BC01CD016096CDBFDEBFCC
:10479600DF91CF911F910F91FF90EF90CF900895E9
:1047A600CF93DF93CDB7DEB72597CDBFDEBF898325
:1047B6006A837B834C835D8300002596CDBFDEBF75
:1047C600DF91CF910895CF93DF93CDB7DEB72597CD
:1047D600CDBFDEBF89836A837B834C835D83000004
:1047E6002596CDBFDEBFDF91CF910895CF93DF939E
:1047F600CDB7DEB72A97CDBFDEBF8E836F837887AE
:1048060049875A878F819885FC0180818B831A821C
:1048160089859A858C839D8319828AC08091524EA0
:104826009091534EFC01228133818091524E90919A
:10483600534EFC01808591852817390708F06AC018
:104846009A818B81981708F054C08A81282F30E00E
:10485600C901880F991F820F931F880F991F9C010A
:104866008C819D81820F931F2091524E3091534E21
:10487600F90122813381FC01208331838A81282F2B
:1048860030E0C901880F991F820F931F880F991F67
:104896009C018C819D81820F931F2091524E3091F5
:1048A600534EF90124813581FC01228333838A81A9
:1048B600282F30E0C901880F991F820F931F880F98
:1048C600991F9C018C819D81820F931F2091524ECE
:1048D6003091534EF90126813781FC0124833583BB
:1048E6008A818F5F8A838F8198852A81FC01208344
:1048F60011C08F8198852B81FC0120838091524EB7
:104906009091534EFC01828593858093524E9093ED
:10491600534E27C08091524E9091534EFC01828592
:1049260093858093524E9093534E89818F5F8983EE
:104936008981282F30E040914448509145488E8126
:10494600682F70E0E3E1E69FC001E79F900D112418
:10495600840F951FFC01818192812817390708F47D
:104966005DCF00002A96CDBFDEBFDF91CF910895BF
:10497600CF93DF93CDB7DEB72A97CDBFDEBF8E8349
:104986006F83788749875A878F819885FC01808154
:104996008B8389859A858C839D8319821A8258C058
:1049A60029813A81C901880F991F820F931F880FA9
:1049B600991F9C018C819D81820F931F2091524EDD
:1049C6003091534EF90122813381FC0120833183DA
:1049D60029813A81C901880F991F820F931F880F79
:1049E600991F9C018C819D81820F931F2091524EAD
:1049F6003091534EF90124813581FC0122833383A2
:104A060029813A81C901880F991F820F931F880F48
:104A1600991F9C018C819D81820F931F2091524E7C
:104A26003091534EF90126813781FC012483358369
:104A36008091524E9091534EFC01828593858093CE
:104A4600524E9093534E89819A81019689839A8317
:104A56008B81282F30E089819A818217930708F489
:104A66009FCF00002A96CDBFDEBFDF91CF9108957C
:104A7600CF93DF93CDB7DEB72A97CDBFDEBF6F8367
:104A8600788789879A878F810E94711A882F90E08C
:104A96008D839E8319821A821B821C824FC080914D
:104AA600524E9091534EFC01228133818091524E99
:104AB6009091534EFC01808591852817390740F562
:104AC60020914448309145484D815E8163E1649F61
:104AD600C001659F900D1124820F931FFC0127854D
:104AE60030898091524E9091534EFC018681978178
:104AF600880F991F880F991F820F931F2091524E7E
:104B06003091534EF90122813381FC012083318398
:104B16008091524E9091534EFC01828593858093ED
:104B2600524E9093534E89819A81AB81BC810196F6
:104B3600A11DB11D89839A83AB83BC832091444810
:104B4600309145484D815E8163E1649FC001659F58
:104B5600900D1124820F931FFC01818192819C018B
:104B660040E050E089819A81AB81BC81821793072E
:104B7600A407B5070CF493CF00002A96CDBFDEBF7D
:104B8600DF91CF910895CF93DF93CDB7DEB72F97FF
:104B9600CDBFDEBF89876A877B874C875D872E8777
:104BA6003F871D8289850E94711A8D8319821A8218
:104BB6001B821C823DC089819A819C01C901880F94
:104BC600991F9C01C901880F991F880F991F880F8B
:104BD600991F821B930B8551924BFC0120813181D9
:104BE6008D81882F90E028173907B9F489819A8139
:104BF6009C01C901880F991F9C01C901880F991F43
:104C0600880F991F880F991F821B930B8551924B12
:104C16008093524E9093534E14C089819A81AB81F2
:104C2600BC810196A11DB11D89839A83AB83BC8388
:104C360089819A81AB81BC810797A105B1050CF4E6
:104C4600BACF0E94F4178E839F838A85888789EF5F
:104C560093E28093544E9093554E8BEB94E280935F
:104C6600564E9093574E83ED93E28093584E909311
:104C7600594E86EE93E280935A4E90935B4E88850A
:104C8600882F90E0880F991F8C5A914BFC01208148
:104C960031814E855F858C859D85BC018D81F901AD
:104CA60009958E819F818093524E9093534E0000BA
:104CB6002F96CDBFDEBFDF91CF910895CF93DF93BF
:104CC600CDB7DEB76197CDBFDEBF8F87688B798B97
:104CD60019821F8218861A821B828F850E94711A7A
:104CE600882F90E08A839B832091444830914548E1
:104CF6004A815B8163E1649FC001659F900D112429
:104D0600820F931F8C839D8381E08E839E01295F92
:104D16003F4F88899989A901BC018F850E94FE2091
:104D2600DC01CB0189838F819885019721F08F81E2
:104D36009885029781F48C819D81FC0181859285FD
:104D46009E01275F3F4FAE014A5F5F4FBC018F85D3
:104D56000E94C6252AC08F819885892BB9F48C813B
:104D66009D81FC0181859285019781F48C819D81CD
:104D7600FC01818592859E01275F3F4FAE014A5F08
:104D86005F4FBC018F850E94C6250FC08F81988515
:104D9600892B59F48C819D81FC0181859285892B13
:104DA60021F48FEF9FEF8B879C878B859C85CC01A9
:104DB600A0E0B0E0BC01CD016196CDBFDEBFDF91C2
:104DC600CF910895CF93DF93CDB7DEB72D97CDBFA3
:104DD600DEBF89876A877B874C875D8719821F823A
:104DE60018861A821B8289850E94711A882F90E084
:104DF6008A839B8320914448309145484A815B8150
:104E060063E1649FC001659F900D1124820F931F7B
:104E16008C839D8381E08E839E01295F3F4F8A8527
:104E26009B85A901BC0189850E94FE20DC01CB017E
:104E360089838F819885019721F08F8198850297C4
:104E460079F48C819D81FC01818592852C853D8537
:104E5600AE014A5F5F4FBC0189850E94C6252DC001
:104E66008F819885892BB1F48C819D81FC01818588
:104E76009285019779F48C819D81FC0181859285CB
:104E86002C853D85AE014A5F5F4FBC0189850E9436
:104E9600C62513C08F819885892B79F48C819D81D5
:104EA600FC0181859285892B41F48C859D852FEFA8
:104EB6003FEFFC012283338300C000002D96CDBF57
:084EC600DEBFDF91CF910895DA
:104ECE002F923F924F925F926F927F928F929F920C
:104EDE00AF92BF92CF92DF92EF92FF920F931F93FA
:104EEE00CF93DF93CDB7DEB7A197CDBFDEBF3B012A
:104EFE00DC011196EC9111974E2F50E04E3051057A
:104F0E00B8F080E0A196CDBFDEBFDF91CF911F91AB
:104F1E000F91FF90EF90DF90CF90BF90AF909F904A
:104F2E008F907F906F905F904F903F902F9008954D
:104F3E001C01FA01EC58FF4F0C94B97B30E8832E1C
:104F4E0061147104810411F40C949630A82DC301E0
:104F5E004E96A11DFC015A2F0E94C27B672B11F4A5
:104F6E000C946F301982282D830141E050E0BE0170
:104F7E006F5F7F4F81E50E941E648111C3CF40E8B1
:104F8E00442EA42DC1010796A11DFC015A2F0E948B
:104F9E00407C61FBCC24C0F8D12CC6010024969530
:104FAE0087950794969587950794982F802D982F1F
:104FBE00907489818F7BC92EC82AC982282D8301BE
:104FCE0041E050E0BE016F5F7F4F81E50E94666158
:104FDE00811198CF482D9301842DB1010E946658FE
:104FEE00811190CF442D91012F5F3F4F4F4F082DD0
:104FFE007301842DB1010E94B56984CF9B0140E8F5
:10500E00BC0180E80E9466587DCF4B01B0E8AB2E04
:10501E0081149104A10411F40C941330F301828DC8
:10502E00938D892B11F40C942B30848D958D892BB7
:10503E0009F49BC7868D978D892B11F40C944C30F7
:10504E002114310411F40C948A3019822A2D840112
:10505E0041E050E0FE0131966F01BF0180E50E94F4
:10506E001E6481114FCFC10104969C0140E82D832F
:10507E003E834F83ED81FE815F810E94407C89815A
:10508E0060FF8EC761FB992790F98C7F62FB3327F7
:10509E0030F9388B198A28893989220F331F2270EB
:1050AE00892B822B63FB662760F96A8B1B8A2A8900
:1050BE003B89220F331F220F331F24708B7F822BCD
:1050CE008983D30113961C922A2D840141E050E06E
:1050DE00B60180E50E946661811114CFF0E84F2E73
:1050EE004A2D9401842DB1010E94665881110ACF78
:1050FE0019822A2D840141E050E0B60182E60E9419
:10510E001E648111FFCE898181FF02C00C945B3039
:10511E00442D91012F5F3F4F4F4F0A2D7401842D67
:10512E00B1010E94FC668111EDCE19822A2D8401F7
:10513E0041E050E0B60189E50E941E648111E2CE85
:10514E00ED81FE815F810E94407C66FB992790F97C
:10515E00898190FB87F989832A2D840141E050E0F3
:10516E00B60189E50E9466618111CCCE1C8219823E
:10517E001A822A2D840141E050E0BE016C5F7F4F00
:10518E008FE50E941E648111BDCE8C818C7F8C8335
:10519E0089838D819E81AF810196A11DFC015A2FBD
:1051AE000E94407C6A832A2D840142E050E0B601C1
:1051BE008FE50E946661A6CE4B0120E8A22E8114D7
:1051CE009104A10409F416C7F301828D938D892BE6
:1051DE0009F42EC7848D958D892B09F4C3C6868D4F
:1051EE00978D892B09F45DC7AB2B09F480C7198203
:1051FE002A2D840141E050E0CE0101966C01BC01E4
:10520E0080E50E941E6481117DCEC10104969C0131
:10521E0040E82D833E834F83ED81FE815F810E94A6
:10522E00407C898165FFB6C68760898381E0D301A2
:10523E0013968C932A2D840141E050E0B60180E54F
:10524E000E94666181115ECEF0E84F2E4A2D9401C8
:10525E00842DB1010E946658811154CE442D9101C6
:10526E002F5F3F4F4F4F0A2D7401842DB1010E94C5
:10527E00FC66811147CE19822A2D840141E050E04F
:10528E00B60189E50E941E6481113CCEED81FE813E
:10529E005F810E94407C64FB992790F9898190FB85
:1052AE0087F989832A2D840141E050E0B60189E512
:1052BE000E946661811126CE8D819E81AF810196FD
:1052CE00A11DFC015A2F0E94407C69832A2D840166
:1052DE0041E050E0B60180E60E946661811112CE77
:1052EE002A2D840141E050E0B60182E60E941E6440
:1052FE00811108CEED81FE815F810E94407C862F58
:10530E008370982F990F990F8981837C262F220FF6
:10531E00220F2073892B822B65FB662760F96E8B1B
:10532E001F8A2E893F89220F331F22708D7F822B79
:10533E0089832A2D840141E050E0B60182E60E9465
:10534E006661E0CDA0E88A2E61147104810409F42F
:10535E0060C6FB01828D938D892B09F484C6848DE2
:10536E00958D892B09F4F8C5868D978D892B09F4B7
:10537E0089C62114310409F4C3C61982282D83016C
:10538E0041E050E0FE0131966F01BF0182E50E94BF
:10539E001E648111B7CDC10104969C0140E82D8396
:1053AE003E834F83ED81FE815F810E94407C60FBD6
:1053BE00442440F8512CC201880F991F880F991F61
:1053CE00880F991F982F98708981877F492E482AB8
:1053DE004982282D830141E050E0B60182E50E940A
:1053EE00666181118FCD30E8432E482D9301842DB7
:1053FE00B1010E946658811185CD442D91012F5F18
:10540E003F4F4F4F082D7301842DB1010E94FC6652
:10541E00811178CD19821A82ED81FE815F810E9401
:10542E00407C607C09F44FC6603409F475C6603860
:10543E0009F47BC6603C09F47DC6282D830142E049
:10544E0050E0B6018AE70E9466615CCDB0E88B2E13
:10545E0061147104810409F4E8C5FB01828D938DFA
:10546E00892B09F4EEC5848D958D892B09F48FC592
:10547E00868D978D892B09F4FCC52114310409F40E
:10548E003CC61982282D830141E050E0FE01319681
:10549E006F01BF0180E50E941E64811133CDC101F1
:1054AE0004969C0140E82B873C874D8730E8432EBD
:1054BE00A42DC1010196A11D8D839E83AF83ED8125
:1054CE00FE815F810E94407C643009F46FC58B853C
:1054DE009C85AD850196A11D88879987AA87E88549
:1054EE00F9855A850E94407C63FBEE24E0F8F12C8E
:1054FE00C70182959295907F9827807F9827982F45
:10550E00907189818F7EE92EE82AE982282D830108
:10551E0041E050E0B60180E50E9466618111F2CC57
:10552E00482D9301842DB1010E9466588111EACC59
:10553E00482D9301842DB1010E9466588111E2CC51
:10554E00082D73012D813E814F81842DB1010E9462
:10555E00FC668111D7CC1982282D830141E050E0E1
:10556E00B60188E50E941E648111CCCCE885F985D0
:10557E005A850E94407C62FB662760F9688F198EFF
:10558E00888D998D880F991F880F991F880F991FE5
:10559E00982F98708981877F892B8983282D830185
:1055AE0041E050E0B60188E50E9466618111AACC07
:1055BE0019821A82282D830142E050E0B60183E65B
:1055CE000E941E6481119ECC8981ED81FE815F81D6
:1055DE000E94407CEB85FC855D85633009F4D9C55E
:1055EE000E94407C462F45FB992790F99A8F1B8E7F
:1055FE002A8D3B8D00243695279507943695279551
:10560E000794322F202D20748F7346FB442740F9C8
:10561E004C8F1D8E4C8D5D8D5695542F442757956E
:10562E004795822B842B89838A81982F907EEB85D8
:10563E00FC855D850E94407C862F8F71892B8A8325
:10564E00282D830142E050E0B60183E60E94666198
:10565E0059CC40E8842E61147104810409F4CDC440
:10566E00FB01828D938D892B09F4E5C4848D958D74
:10567E00892B09F47DC4868D978D892B09F40BC572
:10568E00AB2B09F42EC51982282D830141E050E081
:10569E00CE0101966C01BC0180E50E941E64811151
:1056AE0031CCC10104969C0140E82D833E834F838B
:1056BE00A42FC9010296A11DFC015A2F0E94407C05
:1056CE0060FBAA24A0F8B12CC501002496958795FD
:1056DE000794969587950794982F802D982F907400
:1056EE0089818F7BA92EA82AA982282D830141E0CA
:1056FE0050E0B60180E50E946661811103CC30E86E
:10570E00432E482D9301842DB1010E9466588111BC
:10571E00F9CB442D91012F5F3F4F4F4F082D730151
:10572E00842DB1010E94FC668111ECCB19821A8284
:10573E00282D830142E050E0B60185E60E941E64EA
:10574E008111E0CBED81FE815F810E94407C6983F7
:10575E008D819E81AF810196A11DFC015A2F0E9461
:10576E00407C66FB442740F94E8F1F8E8E8D9F8D99
:10577E000024969587950794969587950794982F6C
:10578E00802D80746F7B862B8A83282D830142E0C7
:10579E0050E0B60185E60E946661B4CB80E8882EA3
:1057AE0061147104810409F42BC4FB01828D938D65
:1057BE00892B09F44FC4848D958D892B09F4CFC3A1
:1057CE00868D978D892B09F451C4AB2B09F492C4A5
:1057DE001982282D830141E050E0DE0111966D0102
:1057EE00BD0180E50E941E6481118CCBC10104961F
:1057FE009C0140E8288739874A872F5F3F4F4F4FDC
:10580E002D833E834F83ED81FE815F810E94407C1C
:10581E0063FB662760F9898160FB87F98983282DF0
:10582E00830141E050E0B60180E50E94666181117E
:10583E0069CB30E8432E482D9301842DB1010E948F
:10584E00665881115FCB442D91012F5F3F4F4F4F13
:10585E00082D7301842DB1010E94FC66811152CB7B
:10586E0019821A82282D830142E050E0B60187E6A4
:10587E000E941E64811146CB8981982F907CE88509
:10588E00F9855A850E94407C862F8F73892B8983D8
:10589E00ED81FE815F810E94407C962F862F880FBE
:1058AE00880F880F80733A81387CE885F9855A8590
:1058BE000E94407C262F2295269526952370917066
:1058CE00990F990F922B832B892B8A83282D830175
:1058DE0042E050E0B60187E60E94666113CB40E8D5
:1058EE00842E61147104810409F49CC3FB01828D22
:1058FE00938D892B09F4A2C3848D958D892B09F480
:10590E003DC3868D978D892B09F4C2C3AB2B09F449
:10591E00E5C31982282D830141E050E0CE010196A6
:10592E006C01BC0181E50E941E648111EBCAC101AC
:10593E0004969C0140E82D833E834F838981ED813F
:10594E00FE815F810E94407C962F91708C7F61FB5F
:10595E00332730F93B871C862B853C85220F331F5E
:10596E002270892B822B62FB662760F96E871F8659
:10597E002E853F85220F331F220F331F24708B7FFE
:10598E00822B8983282D830141E050E0B60181E509
:10599E000E9466618111B6CA40E8442E482D9301DB
:1059AE00842DB1010E9466588111ACCA442D91011B
:1059BE002F5F3F4F4F4F082D7301842DB1010E9471
:1059CE00FC6681119FCA1982282D830141E050E0A7
:1059DE00B60188E50E941E64811194CAED81FE8194
:1059EE005F810E94407C65FB992790F9898190FB2D
:1059FE0087F98983282D830141E050E0B60188E5BF
:105A0E000E94666181117ECA19821A821B82282D1C
:105A1E00830141E050E0B6018CE50E941E648111C5
:105A2E0071CAED81FE815F810E94407C862F869532
:105A3E00869586958370A0E48A9FC0011124998172
:105A4E009F73892B89838D819E81AF810296A11DC3
:105A5E00FC015A2F0E94407C6A838D819E81AF810A
:105A6E000196A11DFC015A2F0E94407C6B83282DAC
:105A7E00830143E050E0B6018CE50E94666142CAA4
:105A8E0040E8842E61147104810409F4BFC2FB0145
:105A9E00828D938D892B09F4E3C2848D958D892B8C
:105AAE0009F469C2868D978D892B09F4E8C2AB2B58
:105ABE0009F42FC31982282D830141E050E0CE0155
